:020000022000DC
:1060000000000120B5620200DD620200DF620200D2
:10601000E1620200E3620200E562020000000000AB
:10602000000000000000000000000000E762020025
:10603000E962020000000000EB620200ED62020073
:10604000318A0200EF62020031900200EF6202002A
:10605000EF620200EF620200E98A0200EF620200D2
:10606000EF620200EF620200EF620200EF620200E4
:10607000EF620200EF620200EF620200EF620200D4
:10608000EF620200E56F0200EF620200EF620200C1
:1060900085700200EF620200A1A80200EF62020018
:1060A000EF620200EF620200EF620200EF620200A4
:1060B000EF620200EF62020000000000000000003A
:1060C000EF620200EF620200EF620200EF62020084
:1060D000EF620200EF620200EF62020000000000C7
:1060E00000000000000000000000000000000000B0
:1060F00000000000000000000000000000000000A0
:10610000000000000000000000000000000000008F
:10611000000000000000000000000000000000007F
:10612000000000000000000000000000000000006F
:10613000000000000000000000000000000000005F
:10614000000000000000000000000000000000004F
:10615000000000000000000000000000000000003F
:10616000000000000000000000000000000000002F
:10617000000000000000000000000000000000001F
:10618000000000000000000000000000000000000F
:1061900000000000000000000000000000000000FF
:1061A00000000000000000000000000000000000EF
:1061B00000000000000000000000000000000000DF
:1061C00000000000000000000000000000000000CF
:1061D00000000000000000000000000000000000BF
:1061E00000000000000000000000000000000000AF
:1061F000000000000000000000000000000000009F
:1062000010B5054C237833B9044B13B10448AFF3F0
:1062100000800123237010BDC81A00200000000078
:1062200084BF020008B5034B1BB103490348AFF319
:10623000008008BD00000000CC1A002084BF0200CE
:10624000154B002B08BF134B9D46A3F5803A002148
:106250008B460F461348144A121A04F0C7FE0F4B20
:10626000002B00D098470E4B002B00D09847002001
:10627000002104000D000D48002802D00C48AFF3A7
:10628000008004F055FE2000290004F007F904F016
:106290003BFE00BF000008000000012000000000DD
:1062A00000000000C81A002058250020000000004F
:1062B000000000000649074A074B9B1A03DD043B18
:1062C000C858D050FBDC02F049F8FFF7B9FF0000D6
:1062D00064C00200A8180020C81A0020FEE7FEE7EC
:1062E000FEE7FEE7FEE7FEE7FEE7FEE7FEE7FEE786
:1062F000F0B595B0002415460F4608461E4601F03D
:1063000005FF384623460895082205A91A9D0996D7
:106310000D950A948DF82C400C9401F051FF9DF8D6
:1063200014308DF81140DDE9061003F00302012A54
:10633000CDE9020127D0022A04D0384601F0EAFE56
:1063400015B0F0BDBDF81650C3F3C2038DF8103080
:10635000AD090826082D2C4628BF082433462246BE
:106360000EA9384601F02CFF2D1B214608AB02AACE
:106370000EA8264400F03EFD002DEBD1384601F07A
:10638000C9FE15B0F0BDBDF81460059DC6F38316B7
:10639000C3F3C204B2000EA9384608238DF810409A
:1063A000C5F3952501F00CFF08AB324628460EA92F
:1063B000009302AB00F078FC384601F0ABFE15B05C
:1063C000F0BD00BF014B01221A707047281B00204E
:1063D000704700BF00B583B0044B0093044A4023CC
:1063E000FFF786FF03B05DF804FB00BFF563020012
:1063F000E81A002038B50E480E4D03780E4CEB5CC1
:106400000025D2B2257053B90C3003F057F858B9B3
:106410000A4B1B7813B12378002BFCD038BD043015
:1064200003F084FA0028F3D000F094FDF0E700BFF9
:10643000A818002054250020281B0020E41A002062
:1064400070B51348134A0378D35C88B0DBB90C30BD
:1064500002F0CEFF104D0FCD6C460FC495E80F0033
:1064600008AD062645F8206D84E80F002946002275
:10647000074802F071FA08B100F06CFD074B0022EA
:106480001A7008B070BD043003F0E8F9E2E700BF0D
:10649000A81800205425002044B30200E41A00206C
:1064A00070B50D4D0FCD88B06C460FC495E80F0048
:1064B00008AD062645F8206D84E80F002946074AF6
:1064C000074802F049FA08B100F044FD054B0122EB
:1064D0001A7008B070BD00BF44B30200C56302006B
:1064E000A8180020E41A002008B5FFF7D9FF0421FE
:1064F000034800F08FFB034B01225A7108BD00BF17
:106500004CC00200BC180020F0B5324C85B004F538
:10651000836001F00DF904F2144001F009F9D4E9A7
:10652000013703EA0702D01C04EB800114F82000B5
:1065300010F0040044D003F1020C0E7806F00306BC
:10654000012E654635D0022E02F1030621D004EB60
:1065500086010028F1D104EB82020133D268019256
:106560003B4004EB830302F00302012ADE6829D0DA
:10657000022A23D1BDF806309B090333360C05EB04
:106580009305154801F0E0F800B16560304605B0AC
:10659000F0BD4B880CEB931307EA0302D11C03F107
:1065A000020C14F82100654604EB810100F00400A0
:1065B000CFE70B88C3F383136344EDE70026E0E7DE
:1065C0009D1CC8E7BDF80430C3F38313360C1D448B
:1065D000D7E700BFFC1B0020102000200B4B0C480D
:1065E00010B50022FF21C3F818249960C3E90022E6
:1065F000C3F8142483F8202401F044FD044610B9A4
:10660000044801F051FE204610BD00BFFC1B0020D5
:10661000D0BF020084B3020021B9124B03EBC000CB
:1066200000687047104A0F49521AD20815D030B48A
:106630000E4D2B88834212D0002303E035F823400F
:10664000844205D001339A42F8D1002030BC704713
:1066500001EBC300006830BC704710467047084625
:10666000F8E700BFE4BF02004CC00200C81A0020D7
:10667000094B013903EBC00003290BD8DFE801F017
:10668000020806040220704740797047007970477D
:106690000420704700207047E4BF02002DE9F0435A
:1066A00083B002AB002203F8012DDFF8DC9007462F
:1066B00018468846D9F8084000F0A4FFD9E901320D
:1066C000D9F80060134401339B1B012B58D809F201
:1066D0001C450121284601F013F8FFF715FF01467C
:1066E000284601F00DF8D9E90132D9F80010134419
:1066F00001335B1A012BECD90A4003320523023126
:106700009DF8070049F82230C9F8001000F0A0FFFA
:1067100000211C4800F0D2FF80F31000731C2340BE
:1067200009EB830300043440033440EA1740D86087
:1067300019F8243067F3C50309F8243039F82430F8
:106740006FF3891329F8243059F8242068F39F2225
:106750001346012161F301036FF3820349F82420FA
:1067600009F8243099F820341BB906E000F00EF83F
:1067700018B1D9E900329A42F8D103B0BDE8F083EC
:106780003146B9E718200020FC1B00202DE9F04716
:10679000934C002384B0C4F81834BFF34F8FD4E96E
:1067A000015605EA0602D31C04EB830114F82330DA
:1067B000580719D527680B7803F00303012B43D042
:1067C000022B03D14B88023505EB931506EA05022F
:1067D000D4F81804D31C04EB830128B9AF4239D98B
:1067E00014F823305B07E6D404EB82026B1CD268FA
:1067F0000192334004EB830302F00302DB6802934F
:10680000022A05F1020700F08D80012A26D0D4F873
:1068100010543DB12B6828469B689847EB681D686B
:10682000002DF7D16F48704B7049C01AC0080004A2
:1068300040F00200FFF732FFD4E90030C01A18BF61
:10684000012004B0BDE8F0870B880235C3F3831341
:106850001D44BBE7676004B0BDE8F087BDF80420C5
:106860006348C2F38313062B28BF062363F3891200
:1068700002339900ADF8042001F006FC80460028A0
:10688000C5D001F043FC0023082201A9404601F0D5
:1068900063FCBDF8043013F4707F00F09F806FF04C
:1068A000010AAAEB050A082506EA070103312B466F
:1068B000042204EB8101404601F04EFCBDF8043097
:1068C00007F101090AEB0902C3F3831393424F4610
:1068D00005F10405E8D8D4F81834002B68D1D4F8B1
:1068E000105465B1EB685A7928464146002A5BD0BE
:1068F0002B681B689847EB681D68002DF2D1404655
:1069000001F008FC04A8002300F80D3D00F07AFE19
:10691000D4F818340BB9C4F804909DF8030000F0C3
:1069200097FE89E7BDF8063031484FEA93194D4686
:10693000502D28BF502565F38F1305F10801ADF8E0
:10694000063001F0A1FB804600283FF460AF26EA44
:10695000070A0AF1010A01F0D9FB4FEA8A0A00236B
:10696000082201A9404601F0F7FB55452BD9EBB2AF
:10697000BAF1000F20D006EA0701A3EB0A030331A6
:1069800004EB8101DDB252460823404601F0E4FBEE
:106990002A460AF108031749404601F0DDFB09F1D8
:1069A000030907EB990996E71D68002D9AD1A6E720
:1069B000404601F0AFFB3FE72A4608230D49404619
:1069C00001F0CAFBEBE706EA0701033104EB8101A2
:1069D0002A460823404601F0BFFBE0E7B9467AE7C4
:1069E000FC1B00200CC00200E4BF020090B30200B8
:1069F000D0BF0200081C00202DE9F04782B002AB96
:106A0000002403F8014DDFF8ECA007461846914634
:106A10008846DAF8084000F0F5FDDAE90132DAF8E4
:106A20000060134401339B1B022B5ED80AF21C4505
:106A30000121284600F064FEFFF766FD0146284666
:106A400000F05EFEDAE90132DAF800101344013397
:106A50005B1A022BECD90A400332033145239DF81F
:106A600007004AF82230CAF8001000F0F1FDB31C0C
:106A700023400AEB830300211D48C3F80C9000F06B
:106A80001DFE80F31000731C23400AEB83030004F7
:106A90003440033440EA1740D8601AF8243067F3D2
:106AA000C5030AF824303AF82430012161F3891330
:106AB0002AF824305AF8242068F39F22134661F301
:106AC00001036FF382034AF824200AF824309AF86D
:106AD00020341BB906E0FFF759FE18B1DAE900329D
:106AE0009A42F8D102B0BDE8F0873146B3E700BF63
:106AF00018200020FC1B00202DE9F04F83B002ADD0
:106B0000002405F8014D3B4C8046284693469A46A2
:106B10008946A56800F076FDD4E901322768134460
:106B20000133DB1B032B63D804F21C4601213046E2
:106B300000F0E6FDFFF7E8FC0146304600F0E0FD1E
:106B4000D4E901322168134401335B1A032BEDD9D8
:106B50000A400332852344F8223004319DF80700AF
:106B6000216000F075FDBA1CFB1C2A402B4004EB91
:106B7000820204EB830300211F48C2F80CB0C3F863
:106B80000CA000F09BFD80F310007B1C2B4004EB5D
:106B9000830300043D40033540EA1840D86014F8F0
:106BA000253068F3C50304F8253034F82530022277
:106BB00062F3891324F8253054F8252069F39F22C5
:106BC0001346012161F301036FF3820344F825208A
:106BD00004F8253094F820341BB906E0FFF7D6FD01
:106BE00018B1D4E900329A42F8D103B0BDE8F08F71
:106BF0003946ADE7FC1B002018200020044BD3E9E8
:106C000000239A4201D0FFF7C1BD0020704700BFAA
:106C1000FC1B002030B4184DD5F8104400215CB1A5
:106C2000E3681A798A4204D116E0DB681A798A424D
:106C300012D01B68002BF8D1C3681971D5F8103435
:106C400093B1DA68C36812681A60D5F81034DB684B
:106C5000186030BC0846704701310A29DFD14FF077
:106C6000FF31084630BC7047C5F81004C268136095
:106C7000084630BC704700BFFC1B002038B5094BEC
:106C8000D3F81044012583F820544CB1E3685D71BA
:106C9000236820465B689847E3681C68002CF5D1A0
:106CA00038BD00BFFC1B00202DE9F04784B01D4615
:106CB0000C9C002394F80C802373EB8881460E46CD
:106CC0001746002B40D1297A05290ED06B7AA88867
:106CD00073BB404B53F821A00021FFF79DFC5246A7
:106CE00003463D49204600F0A7FD062F09D8DFE8FE
:106CF00007F0046A4249525D33004946204600F0DD
:106D00009BFD2B7A052B05D06B7A5BB93349204666
:106D100000F092FD204600F083FD84F80C8004B062
:106D2000BDE8F0872E4A2F49204600F085FDEDE7AB
:106D3000FFF79EFC2C4B2B4953F82020204600F0F7
:106D40007BFD297AA888C4E7254A00922749284A6A
:106D5000204600F071FDB6E7D6E90410D6E900231D
:106D60000390D6E902070291CDE900074946204683
:106D700000F062FDC5E74946D6E90023204600F051
:106D80005BFDBEE7B168D6E9002320460091494685
:106D900000F052FDB5E7D6E90201D6E900230191E2
:106DA00000904946204600F047FDAAE7D6E9037166
:106DB000B068D6E900230291CDE900074946204694
:106DC00000F03AFD9DE732684946204600F034FD68
:106DD00097E700BF18B402000CB4020048BA0200E2
:106DE00000B4020008B40200A8B30200E8B3020035
:106DF000E0B30200082900D970472DE9F04F1D4685
:106E0000904600232A7B2B7385B0B8F80630039296
:106E100007460E46002B7BD198F80810052911D0A3
:106E200098F80930B8F80400002B63D13C4B53F8B4
:106E300021400021FFF7F0FB22460346394928464E
:106E400000F0FAFCDFF8FCB0DFF8FC90002405E06D
:106E50003A5D013400F0F0FC082C09D0A642494606
:106E60002846F5D85946013400F0E6FC082CF5D147
:106E70002D49DFF8D8B0DFF8D890284600F0DCFCC8
:106E800000240CE017F804A0BAF17E0F23D92E22BB
:106E900049462846013400F0CFFC082C08D0A64211
:106EA000F0D859462846013400F0C6FC082CF6D12B
:106EB00098F80830052B02D098F80930A3B91B497F
:106EC000284600F0B9FC284600F0AAFC039B2B736F
:106ED00005B0BDE8F08F04F04FF8504452464378B7
:106EE00013F0970FD3D0D3E7114A1249284600F088
:106EF000A3FCE4E7FFF7BCFB0F4B0E4953F820203F
:106F0000284600F099FC98F80810B8F804008DE7BE
:106F1000074A009209490A4A284600F08DFC7BE79F
:106F200018B402000CB40200D8B3020048BA020040
:106F300000B4020008B40200A8B30200E8B30200E3
:106F4000E0B30200D4B30200CCB3020014B40200D8
:106F5000DCB3020000B585B000230390194601AAF6
:106F600044F20100CDE9013300F004F805B05DF80A
:106F700004FB00BF10B572B6FFF780FEFFF73EFEC0
:106F80000028FBD1104B114C1149E41AE4082404E9
:106F900044F00100FFF782FB0E4B1B68DB0700D5B6
:106FA00000BE44F002000C49FFF778FBBFF34F8F9F
:106FB0000A490B4BCA6802F4E0621343CB60BFF38B
:106FC0004F8F00BFFDE700BFE4BF02000CC002000E
:106FD00084B40200F0ED00E090B4020000ED00E0A7
:106FE0000400FA05F8B5204A204B0024C2F84041BD
:106FF000C2F84441C2F84841C2F84C41C2F80041CD
:10700000C2F804411B6833B31949D2F804550A6821
:10701000AD1A1A6825F07F45AA4227460DD8197C7B
:10702000DE69AD1A144419B11F74D3E905209047E5
:107030001EB133461A68AA42F1D90E490E4A0B789E
:1070400012789A4208D00D490D4A41F823404FF476
:107050008013C2F80031F8BD531CDBB2022B08BF0D
:1070600000230B70EFE700BF00100140D821002083
:10707000D4210020D1210020D0210020C8210020CF
:1070800000E100E02DE9F04F8C4A8D491378097832
:10709000DFF85082994285B0D8F800A000F07B81DB
:1070A0000133DBB2022B08BF002386481370864AE7
:1070B000076852F823107B1823F07F4300240360F5
:1070C000534626462046A446ABB11A688A4200F2CF
:1070D0006581DC68C3F800C0891A1044DA6934B1EC
:1070E0003D1825F07F45C3E90154DE611E46134675
:1070F0000124002BE9D1002C40F07C810123009376
:10710000724B734FDFF8E09143F001030193554652
:107110004FF0000B46B3D6E901C13446F669694B1E
:107120006C481A68ACEB020323F07F43834248D8D3
:107130000B44236000220121C4E90122E261217491
:10714000002D5DD02A689A424DD2284603E00A6895
:107150009A424FD20846C1699B1A0029F7D1236091
:10716000E161C461002ED6D178783978884264D044
:107170000B4603EB43034C1CBA7807EBC303E1B2A5
:107180008A421A79397004BF00213970022A9C683A
:1071900044D0032A38D0012AE8D1227C002AE5D144
:1071A000D3F80CC0C4F804C01969A1605869E06044
:1071B00099F800009B69A3610028B0D062609446F2
:1071C000ADE7A2EB0C0222F07F428A4202D28B1A78
:1071D0002360AFE700230122C4E90033A360E36129
:1071E00022746DB12A68C8F80040D31A2B60E5619B
:1071F00025468FE7D21A0A602360E161C461B1E7D6
:10720000C8F80040254685E7002DAFD000232B7439
:10721000ED69002DFBD1C8F80050A5E74DB1AC4297
:107220002B4603D1E4E094422FD01346DA69002ABA
:10723000F9D10023237488429AD1BBF1000F01D108
:10724000554553D0002D56D1234E244A1F4C4FF4A0
:1072500080334FF400310127C2F880103C43C6F858
:1072600048334FF43C60C6F808337760A047154BAD
:10727000B7604FF43C601D60A047194B1D700023A0
:1072800089F8003005B0BDE8F08FA34200F091808E
:10729000E0692168D861002800F086802A460368EA
:1072A0000B440360AA424FF00003397878782374C6
:1072B0001CBF15464FF0010BBDE700BFD0210020D9
:1072C000D1210020D4210020C8210020A0B4020038
:1072D000B8200020FEFF7F000010014000E100E028
:1072E000C5210020D8210020C4210020009B002BB4
:1072F000C5D0002DA8D0434B434A1C68D2F8046582
:10730000424FD5F800A03978331B23F07F43DD1CB2
:10731000B9B93F493F4B4FF48030C2F844034FF0B6
:107320000108C2F804034FF40030C1F8800143F0B3
:1073300001030860C2F800804FF43C60984787F86A
:107340000080AA452CBF04EB0A0363192E4923F0E1
:107350007F43C1F84035D1F80425921B9B1B22F0D6
:107360007F4223F07F4303329A4288D9294BD1F8D8
:107370000425C1F8402543F001034FF43C609847D1
:10738000234B4FF40032C3F80021002389F800306A
:1073900005B0BDE8F08F00260096B1E674BB521A26
:1073A0001A6001230093ABE60023397878782374C0
:1073B00041E71946EA69C8F8002092B9CDE90231DF
:1073C000114BDFF840C001209860019B89F8000054
:1073D000CCF800204FF43C609847DDE90231D8F842
:1073E0000020C8690968D86100287FF458AF59E7C0
:1073F0002946DFE7C8F800309A467FE6C8F8003033
:107400009A46CCE7D421002000100140C52100207D
:1074100000E100E0A0B402002DE9F8431F4D204E2A
:10742000204FDFF898804FF480334FF400324FF054
:1074300001090024C6F8802047EA0907C5F8483347
:107440004FF43C60C5F80833C5F80490B847C5F858
:1074500008904FF43C60C8F80040B847124A134BFC
:1074600013491C601470134B134A0C700B211470D9
:107470001C8099704FF48012C023C6F8802186F8D2
:1074800014333260C5F8084586F81133D5F8043551
:10749000C8F800302046BDE8F88300BF0010014066
:1074A00000E100E0A0B40200C5210020D8210020A6
:1074B000D0210020B8200020D1210020D42100209C
:1074C000074B9B784BB132B128B10368187C20B9C7
:1074D00059745A617047072070470820704700BFF1
:1074E000B82000202DE9F047264CA37882B0002B6D
:1074F0003CD000283AD004293CD94369002B35D030
:10750000814602A899F811300026012B00F8016D80
:107510000CBF8846B04617468A4600F073F8637879
:10752000A17822789DF807005D1CEDB2A94208BF42
:107530003546AA4222D003EB430304EBC3030121E7
:10754000114AC3F808901971D2F804256570C3E98F
:10755000032AC3E9058700F07BF80C4B4FF4801237
:107560003046C3F8002102B0BDE8F087082002B021
:10757000BDE8F087072002B0BDE8F08700F068F8AA
:107580000420F0E7B82000200010014000E100E0F6
:10759000F0B51A4CA37883B043B338B343692BB327
:1075A000064602A8002500F8015D357400F02AF8AF
:1075B0006278A77821789DF80700531CDBB29F42C0
:1075C00008BF2B46994214D002EB420204EBC202E0
:1075D000022196601171637000F03AF8084B4FF485
:1075E00080122846C3F8002103B0F0BD082003B084
:1075F000F0BD00F02DF80420F9E700BFB82000200E
:1076000000E100E070B4EFF3108472B60D4B9A689D
:10761000AAB90D490D4E01259D60D1F88050354025
:107620001D60C1F88060D1F884505D604FF0FF3379
:10763000C1F88430027004B962B670BC704701238F
:107640000370F8E74825002000E100E0FC06FFBDDC
:10765000094B9A687AB170B910B4EFF3108172B621
:10766000064A1C6814605C685460986001B962B690
:107670005DF8044B704770474825002000E100E0AA
:1076800001F01F024B09012100EB8300914000F043
:107690001FB800BF01F01F0201234909934000EB0E
:1076A0008100D94300F020B84B0901F01F0150F8C8
:1076B0002300C84000F00100704700BF50E8002FD1
:1076C0000B4640E8003C9CF0000FF7D11046704795
:1076D00050E8003F43EA010240E8002C9CF0000F14
:1076E000F6D11046704700BF50E8003F03EA0102A0
:1076F00040E8002C9CF0000FF6D11046704700BF08
:1077000050E8003F03EB010240E8002C9CF0000F22
:10771000F6D11046704700BF50E8003FA3EB0102CE
:1077200040E8002C9CF0000FF6D11046704700BFD7
:10773000012350E8002F42EA030C40E800C191F019
:10774000000FF6D160467047002350E800CF0CEAE6
:10775000030240E8002191F0000FF6D16046704727
:10776000B8B130B4D0E90112521A0468D2B2531E33
:107770002160DBB242B101680A685C1E551C0D60D5
:107780001370E3B2FF2BF6D103680020187130BCF0
:1077900070470E20704700BFF0B583B002AB0025E4
:1077A00003F8015D04461846FFF72CFFD4E90031C9
:1077B0001A688A4210D9511E19602168A3680F689F
:1077C00012F8015C0A79268AE068DB1BDBB29A4278
:1077D00006FB050538BF0B719DF80700FFF738FF62
:1077E000284603B0F0BD00BF30B583B002AB002225
:1077F00003F8012D054618460C46FFF703FF2A68DB
:107800001368591C1160E9682A8A641AB4FBF2F4FF
:107810001C709DF80700FFF71BFF03B030BD00BFD1
:10782000826842B110B5044643690168006998470F
:107830000023A36010BD70470EB400B582B0039959
:1078400029B102AA04AB42F8043D00F0A9F802B045
:107850005DF804EB03B070472DE9F04F924683B01A
:1078600051450F4605461E46DDE90CB2C0F0928038
:107870000B464FF00108B3FBFAF39A4508F10108F3
:10788000F9D9B04538BFB04612F00109A96802D154
:10789000BBF1000F54D1012402E0013E0AFB04F4C5
:1078A000012EFAD8B7FBF4F08245F7D93B4E02E03F
:1078B000A968B7FBF4F0335C2A680A2B04FB107745
:1078C00002EB010E01F1010029D0A8608EF8003012
:1078D000D5E90131994202D32846FFF7A1FFB4FB55
:1078E000FAF4002CE4D1B9F1000F15D0BBF1000F70
:1078F00012D0C34510D92024AB682A68591CA9604E
:10790000D454D5E901329A420BF1FF3B14D2BBF1BA
:10791000000F01D0C345EFD103B0BDE8F08FA860E0
:107920004FF00D005054D5E9011088421DD229684E
:1079300001EB000E0130C8E72846FFF771FFE6E7CC
:10794000930722D42024C345A5D92B684A1CAA60DA
:107950005C54D5E9013199420BF1FF3B10D2BBF1E8
:10796000000F98D0C345F0D195E728460193FFF763
:1079700057FFAA682968019B501C01EB020EA4E77F
:107980002846FFF74DFFA968E9E7002E0CBF302419
:107990002024D8E74FF0010873E700BFA8B4020025
:1079A000002900F0B9822DE9F04F054687B09146D5
:1079B0000C460E78DFF8C8A64FF00D0B13E0AB684D
:1079C00028680A2E03F1010200EB030100F04B824C
:1079D000AA600E70D5E901329A4280F01B812678A8
:1079E000002E00F01E810134002E00F01A81252E99
:1079F000E5D12346002713F8012B2D2A00F0E38060
:107A0000302A00F0E4802B2A00F0D4802A2A00F0EB
:107A10000D81A2F13006F1B2092903D97DE2A1F16D
:107A200030060346184606EB860110F8012BA2F13A
:107A30003004092C02EB4101F1D92E2A00F0028119
:107A40004FF00008013301E013F8012B02F0FB01B5
:107A500068291C46F8D0253A532AC0D801A353F808
:107A600022F000BF4F7E0200DF790200DF790200C2
:107A7000DF790200DF790200DF790200DF7902009E
:107A8000DF790200DF790200DF790200DF7902008E
:107A9000DF790200DF790200DF790200DF7902007E
:107AA000DF790200DF790200DF790200DF7902006E
:107AB000DF790200DF790200DF790200DF7902005E
:107AC000DF790200DF790200DF790200DF7902004E
:107AD000DF790200DF790200DF790200DF7902003E
:107AE000DF790200DF790200DF790200DF7902002E
:107AF000DF790200DF790200DF790200DF7902001E
:107B0000DF790200DF790200DF790200DF7902000D
:107B1000DF790200DF790200DF790200DF790200FD
:107B2000DF790200DF790200DF790200DF790200ED
:107B3000337E0200DF790200DF790200DF79020084
:107B4000DF790200DF790200DF790200DF790200CD
:107B5000DF790200DF790200DF790200D77B0200C3
:107B6000B97D0200DF790200DF790200DF790200CF
:107B7000DF790200B97D0200DF790200DF790200BF
:107B8000DF790200DF790200DF790200DF7902008D
:107B9000217D0200DF790200DF790200997C02007A
:107BA000DF7902007D7C0200DF790200DF790200CC
:107BB000337E020047F004071C46234613F8012BCE
:107BC0002D2A7FF41DAF47F001071C46F5E747F06B
:107BD00002071C46F1E7D9F800301A1DC9F8002049
:107BE0001E78AB680A2E0CD12A68591CA96002F8CD
:107BF00003B0D5E90123934203D32846FFF710FED3
:107C0000AB682A68591CA960D654D5E901329A425A
:107C1000FFF4E5AE2846FFF703FE2678002E7FF43A
:107C2000E2AE2B7B23BB07B0BDE8F08FD9F8002074
:107C3000111DC9F80010166862782E2A04F102009E
:107C40007FF4FEAE5A78A2F13003092B00F2BD8119
:107C50004FF0000808EB880802EB480810F8012FE5
:107C6000A2F13003092BA8F13008F3D90346E9E665
:107C7000284607B0BDE8F04FFFF7D2BDD9F8003075
:107C80001A1DC9F8002019680197434600960A2278
:107C90002846FFF7E1FDA2E6D9F800301A1DC9F821
:107CA0000020D3F80080FB0700F1E880B8F1000F56
:107CB00000F0A181404603F0A1F90746BE4215D964
:107CC000A6B1202100E08EB1AA682B68501CA860E4
:107CD0009954D5E901329A4206F1FF3604D3284679
:107CE0000391FFF79DFD0399BE42ECD108F1FF38E7
:107CF00018F8016F002E3FF472AEAB6828680A2EA8
:107D000003F1010200EB030100F09081AA600E7004
:107D1000D5E901329A42EBD32846FFF781FDE7E728
:107D2000D9F80020131DC9F80030AB68296817681E
:107D3000581C3022A860CA54D5E90123934280F030
:107D4000E6802A68581C7821A860D154D5E901231F
:107D5000934280F0D7800F2F03D93A4612090F2A99
:107D6000FCD84FF080560DE0AA6081F80080D5E97C
:107D700001329A4202D32846FFF752FD36093FF4FA
:107D80002EAEAB68B7FBF6F21AF802802868B8F19D
:107D90000A0F06FB127700EB030103F10102E3D1A6
:107DA000AA6000F803B0D5E901329A4280F0498117
:107DB0002B6899180132D7E7D9F800301A1DC9F895
:107DC0000020196881EAE173A3EBE173092B40F30A
:107DD0000E81AA480122A0FB03C3DB08092B02F194
:107DE0000102F8DC4245134638BF4346039307F0CF
:107DF0000203002E40F09580002B00F0B780B8F110
:107E0000000F00F0F680F80740F1B0800029C0F2C2
:107E1000FF807A0700F1C88007F00303022B00F00F
:107E2000A780CDE9006743460A222846FFF714FDE4
:107E3000D5E5D9F800301A1DC9F800201968019756
:107E40004346009610222846FFF706FDC7E5AB68BB
:107E50002A68581C2521A860D154D5E901329A42DC
:107E6000FFF4BDADD6E6AA6000F803B0D5E9013253
:107E70009A423FD2296811440132A9E54146A1EB5B
:107E8000080311F8017BD7B1AB68D5F800C00A2F01
:107E900003F101020CEB030000F0AF80AA60077051
:107EA000D5E901329A42EAD328460391FFF7B8FC9C
:107EB0000399A1EB080311F8017B002FE4D19E4246
:107EC0007FF68DAD202702E0002E3FF488ADA96833
:107ED0002A68481CA8605754D5E90121914206F14F
:107EE000FF3604D328460393FFF79AFC039BB34263
:107EF000EAD174E52846FFF793FCAB6829685A1C61
:107F0000194465E52846FFF78BFCAB6823E7284654
:107F1000FFF786FCAB6814E7704718460026234637
:107F20008BE5002920DB7A071ED41BB1B8F1000FC6
:107F30003FF46CAFF8073FF569AFBEB1039BB342A6
:107F4000BFF464AF2023AA68501CA860286883543B
:107F5000D5E90102824206F1FF3640D236B1039ADA
:107F6000B242F0D1164651E7013EDEE700264DE76A
:107F7000B8F1000F7FF455AF002E6AD0039BB342D7
:107F8000BFF44FAF3023AA68501CA8602868835400
:107F9000D5E90102824206F1FF3618D2002E58D0F0
:107FA000039AB242EFD13CE7AA68531CAB602B683E
:107FB0002B209854D5E901329A42FFF42DAF284680
:107FC0000491FFF72DFC049926E7034638E528467F
:107FD000CDE90413FFF724FCDDE90413DEE72846AE
:107FE000CDE90413FFF71CFCDDE90413B6E7012219
:107FF000F8E646460AE7474660E6AA600CF803B092
:10800000D5E901329A4226D22B689818013245E709
:10801000AA68531CAB602B682D209854D5E9013217
:108020009A42C1F10001FFF4F7AEC8E7AA6000F878
:1080300003B0D5E901329A4217D2296811440132BE
:1080400064E62846FFF7ECFBA9682B684A1C194434
:108050008AE60026E5E628460391FFF7E1FBA868DB
:108060002B680399421C184418E72846FFF7D8FBF1
:10807000AB6829685A1C194448E600BFCDCCCCCC6B
:10808000A8B40200FFF76CBB2DE9F041058ACE1CB5
:10809000043D2E440746B6FBF5F6FFF77DFB78B3AB
:1080A000F6B24FF48073013E0446C58007608380BA
:1080B00027D08046002509E06379AE4203F1010331
:1080C0006371C8F80000076080461AD03846FFF791
:1080D00063FB01350028EFD16679721E14D0234668
:1080E000013082421B68FBD11F684EB10025236816
:1080F0002146013538461C46FFF776FBAE42F6D1E5
:1081000000242046BDE8F0812768EFE70430012114
:10811000FFF7F6BAF8B5012104460430FFF7FCFA80
:10812000C0B200B1F8BD6679721E12D0234601308C
:1081300082421B68FBD11F68002EF3D00025236804
:108140002146013538461C46FFF74EFBAE42F6D1BC
:10815000F8BD2768F2E700BF2DE9F843C7884679E4
:1081600007FB06F6043E02EB030C0446664503F1EA
:10817000040015468846B0FBF7F238BFF51A07FB36
:10818000120012B1013A2468FCD13E1AAE4228BF57
:108190002E469DB14FF000090430AD1B20443246FD
:1081A00008EB090102F017FFAF42B14424683E46D4
:1081B0004FF0000028BF2E46002DEDD1BDE8F8831A
:1081C0002DE9F843C7884679154607FB06F6043EB5
:1081D00005EB030C1A1D664504468846B2FBF7F012
:1081E00038BFF51A07FB102110B101382468FCD103
:1081F0007E1AAE4228BF2E469DB14FF000090431D1
:108200002144AD1B324608EB090002F0E4FEAF4208
:10821000B14424683E464FF0000128BF2E46002D91
:10822000EDD1BDE8F88300BF41DF7047064A074B38
:1082300010B5002414701C60BFF35F8F044905481B
:1082400000F040F8204610BDE4210020E821002085
:10825000B8B40200DC21002000B583B002A80023DE
:1082600000F8013DFFF7CEF9F1EE103A23F09F033D
:10827000E1EE103ABFF35F8F0A4B4022C3F884212E
:108280009DF80700FFF7E4F902F004FB28B920BFCE
:1082900040BF20BF03B05DF804FBFFF7C5FF03B08C
:1082A0005DF804FB00E100E08268002393608268CF
:1082B0001361826853618268D36082685360826808
:1082C0001360704701600B6843604A68934204BFC3
:1082D00000234360704700BF436843B10268916860
:1082E0000B4443605268934204BF002343607047CD
:1082F00030B4184DA5F59472AB1ADB1003EBD373B1
:108300005B1002EBC30152F83330984228BF0C4691
:1083100005D311E052F8333098420CD221468B1A23
:10832000DB1003EBD3735B108A4202EBC304F1D37F
:10833000094830BC70470D46984204D904F1080240
:10834000AA42D9D3F4E76068034B002808BF184657
:10835000EFE700BF0CB60200D0B4020030B4904B7F
:108360001B78062B20D08F4B1B68062B00F08580D6
:108370008D4AD2F8883043F47003C2F88830BFF3D6
:108380004F8FBFF36F8F4FF01023D3F80022002AD6
:10839000C0F28681D3F80432002BC0F28181834B76
:1083A000834A1A6030BC7047824B1B681D07DAD1C4
:1083B000814B1B6803F0F002302A00F09E8003F02E
:1083C000E003402B00F099807B4B1B6803F0F00327
:1083D000302B00F0B980784B1B6803F0F002302A94
:1083E00056D003F0E003402B52D0734B1B6803F0D0
:1083F000F003302B00F0B6806F4B1B6803F0F002E7
:10840000302A66D003F0E003402B62D06A4B1B6831
:1084100003F0F003302B00F0B580674B1B6803F0CE
:10842000F003302B79D0644B1B6803F0F003502B22
:1084300000F0E480604B1B6803F0F002302A37D074
:1084400003F0E003402B33D05B4B1B6803F0F002DA
:10845000302A03D003F0E003402B84D14FF0804357
:10846000D3F80024D20744BF6FF00102C3F8002400
:108470004C4B1B68062B7FF47BAF504B1B68062BC5
:108480007FF476AF4E4A136843F4806313606FE75E
:108490004C4B434A1B6812784B49C3F34233062ABC
:1084A0000B6048D1434B1B6819077FF45CAF9CE716
:1084B000464A3B4B12681B78454902F04F02062B97
:1084C0000A607FF450AF3B4B1B6819077FF44BAF3A
:1084D000BAE74FF080430022C3F80C21C3F8102103
:1084E000C3F838252E4B1B78062B7FF43CAF314B5D
:1084F0001B681B077FF437AF88E7364B284A1B6899
:1085000012783549C3F30423062A0B60EAD1294BBC
:108510001B681C077FF427AF56E7304C204A3049D0
:1085200012783048304B0525256001250D60002468
:108530003F2104601960062A7FF415AF1D4B1B68AC
:108540001C077FF410AF6EE7154B284A1B782849AB
:108550001160062B7FF407AF164B1B6818077FF4DA
:1085600002AF38E723490E4BCA681B7822F08072AD
:10857000062BCA607FF4F7AE0E4B1B681A077FF418
:10858000F2AE39E7064B1C4A1B780321062B11601B
:108590007FF4E9AE074B1B681D077FF4E4AE3CE7B0
:1085A000E00F00F03001001000ED00E0C4180020E2
:1085B0000090D003E40F00F0E80F00F03401001049
:1085C0003C170040440200103C05004058020010D7
:1085D000E40E0040240300104035014010560040D6
:1085E00088560040185600401456004074C007409A
:1085F0000DF0ADBAF0ED00E0A00500404FF0805363
:10860000404AD3F80414C2F82015D3F80814C2F86D
:108610002415D3F80C14C2F82815D3F81014C2F896
:108620002C15D3F81414C2F83015D3F81814C2F866
:108630003415D3F81C14C2F84015D3F82014C2F82E
:108640004415D3F82414C2F84815D3F82814C2F8F6
:108650004C15D3F82C14C2F85015D3F83014C2F8C6
:108660005415D3F83414C2F86015D3F83814C2F88E
:108670006415D3F83C14C2F86815D3F840142248A6
:10868000C2F86C15D3F844140378C2F87015062BA1
:108690007FF469AE1D4B1B6818077FF464AEC9E612
:1086A0001B4B0122C3F80425D3F80024002AFBD079
:1086B0004FF0102315221649C3F80022D1F80034D8
:1086C000002BFBD04FF010221521114BC2F80412E1
:1086D000D3F80024002AFBD000220D49C3F804255A
:1086E000D1F80034002BFBD0BFF34F8F09490A4B60
:1086F000CA6802F4E0621343CB60BFF34F8F00BF40
:10870000FDE700BF00C00040E00F00F0E40F00F004
:1087100000E0014000ED00E00400FA05054A4FF0DA
:10872000A043105CD3F8043523FA00F0C04300F0F6
:1087300001007047F8B90200044B195C4FF0A042E9
:1087400001238B40C2F80C35704700BFF8B9020016
:10875000044B195C4FF0A04201238B40C2F808354E
:10876000704700BFF8B902004FF0A04310B44FF4B7
:1087700080204FF400344FF400214FF48012C3F8EE
:108780000845C3F80805C3F80815C3F808255DF8BF
:10879000044B70474FF0A04310B44FF480204FF4C7
:1087A00000344FF400214FF48012C3F80C45C3F895
:1087B0000C05C3F80C15C3F80C255DF8044B704785
:1087C000074B4FF0A041185CD1F8043501228240DC
:1087D00022EA03001340C1F80805C1F80C357047C0
:1087E000F8B9020010B570B101280BD10D4C236906
:1087F000A0703BB1D3E9002301202261984723698F
:10880000002BF7D110BD074CA36801226270002B2A
:10881000F8D0D3E900230020A2609847A368002B7A
:10882000F7D1EFE7EC21002070B910B5074CA36831
:10883000012262703BB1D3E900230020A260984777
:10884000A368002BF7D110BD704700BFEC210020BA
:1088500030B5012883B01CD015D3032811D100F006
:10886000C9F802A800231F4C00F8013DFEF7CAFE1C
:10887000E368013BE360E56865B39DF80700FEF738
:10888000E7FE03B030BD184B0122C3F8802003B0CF
:1088900030BD02A80023134C00F8013DFEF7B2FEE4
:1088A000237853B1E3689DF8070001330122E360A8
:1088B000A270FEF7CDFE03B030BD0C486360A3602C
:1088C0002361E36000F088F801F0E4FF30B1012398
:1088D0002370E7E700F0A0F8A570CEE700F08AF873
:1088E000F5E700BFEC21002000E100E0E587020091
:1088F00030B585B0047845688DF80040D0E9024075
:10890000064A074B039053F8213001958DF8084033
:1089100052F821106846984705B030BD002200206B
:108920000422002030B585B0047845688DF80040F9
:10893000D0E90240064A074B039053F821300195D5
:108940008DF8084052F821106846984705B030BDB0
:108950000022002004220020F0B51A4B06781A4DA0
:108960000C6991F81DE045F826400746174803F8C2
:1089700006E040F826200C4694460FCC89B06D46A0
:108980000FC594E80F0085E80F000496BEF1000FB4
:108990000BD0BCF1000F0E4A694607F1040008BF76
:1089A000002200F07FFE09B0F0BDBCF1000F094AC3
:1089B000694607F10C0008BF002200F04FFC09B027
:1089C000F0BD00BF5425002000220020042200201A
:1089D000F188020025890200054A137933B9012183
:1089E000106093715371184611717047852070475C
:1089F00008220020074B1A68D20704D4C0210122A4
:108A000083F800131A604FF080430022C3F8182542
:108A1000704700BF00E100E0044B01221A604FF0F4
:108A20008042D2F81834DB03FBD470470C000040BE
:108A300010B5274B1A6884B07AB10021254A196015
:108A40001B68507900934FF080410123009CC1F8CE
:108A5000083310B91168537188471F4B1A686AB1FF
:108A600000221A601B6801934FF080420221194BCB
:108A70000198C2F808131B6801209847174B1A6821
:108A80006AB100221A601B6802934FF080421021E5
:108A9000104B0298C2F808131B6802209847104B2D
:108AA0001A689AB10F480B49002202601A601B68CD
:108AB00003934FF080430820039CC3F808030B681E
:108AC0008A71032004B0BDE81040184704B010BDFF
:108AD0000001004008220020040100401001004075
:108AE0000C010040340C00402DE9F04186B0002319
:108AF000A14A01931668012E00F054811E469F4B37
:108B00001A68012A00F05D819D4B1A68012A00F065
:108B10006A819C4B1A68012A00F077819A4B1A6887
:108B2000012A00F08481994B1A68012A00F0918192
:108B3000974B1A68012A00F09E81964B1A68012A09
:108B40000CD0954B1B68012B00F0A58116F0FF0F90
:108B500015D1002E30DB06B0BDE8F0818F4AD2F887
:108B600004231706EDD500221A601A6804926033B8
:108B7000049A1B68012B46F0800600F08C81884F18
:108B800000240125A30003F18043354203F5C043CF
:108B90004FEA45050BD0D3F8100557F82420D3F839
:108BA0001015C0F30420C1F3014102B19047013414
:108BB000082CE7D1002ECEDA00224FF0FF33CDE9AA
:108BC0000223774C012602AF94F950305D1C2CD063
:108BD000DBB223F0C00006AA4FEAD00C02EB0C0E69
:108BE00003F007021EF80C1C06FA02F211421CD018
:108BF0002518990995F9303054F82330002B00F0EE
:108C00009881032900F098814FEA800C0CF1A04C68
:108C10001EF8145CDCF800E71540CEF3014E40F07E
:108C20005C81BEF1030F00F0DE81002594F9513024
:108C3000581C2DD0DBB223F0C00006AA4FEAD008A2
:108C400002EB080E03F007011EF80C2C06FA01FCDB
:108C500012EA0C0F1CD02218990992F9303054F8FE
:108C60002330002B00F05B81032900F05B81820040
:108C700002F1A0421EF8148CD2F800E718EA0C0F9B
:108C8000CEF3014E40F03681BEF1030F00F0A68115
:108C900094F95230591C2DD0DBB223F0C00006AA43
:108CA0004FEAD00802EB080E03F007011EF80C2C67
:108CB00006FA01FC12EA0C0F1CD02218990992F94D
:108CC000303054F82330002B00F03C81032900F0B1
:108CD0003C81820002F1A0421EF8148CD2F800E719
:108CE00018EA0C0FCEF3014E40F0E380BEF1030F03
:108CF00000F06E8194F953305A1C2DD0DBB223F072
:108D0000C00006AA4FEAD00802EB080E03F00701E4
:108D10001EF80C2C06FA01FC12EA0C0F1CD02218CB
:108D2000990992F9303054F82330002B00F0ED808F
:108D3000032900F0ED80820002F1A0421EF8148C9D
:108D4000D2F800E718EA0C0FCEF3014E40F0BC80D9
:108D5000BEF1030F00F00081002D3FF4FCAE4FF098
:108D6000A043019AD3F8103593423FF4F4AE029A2F
:108D70000193039228E700BF0061004004610040B6
:108D8000086100400C610040106100401461004027
:108D9000186100401C6100407C61004000600040A0
:108DA000102200209A49D1F8041311F0010170D06B
:108DB000136013680493049B964B1A68012A7FF48E
:108DC000A3AE934AD2F8042397077FF59DAE002205
:108DD0001A601B680493049B8F4B1A68012A46F0A3
:108DE00002067FF496AE8A4AD2F8042355077FF52F
:108DF00090AE00221A601B680493049B874B1A688C
:108E0000012A46F004067FF489AE814AD2F8042391
:108E100014077FF583AE00221A601B680493049B3D
:108E20007F4B1A68012A46F008067FF47CAE784A28
:108E3000D2F80423D0067FF576AE00221A601B68B4
:108E40000493049B774B1A68012A46F010067FF4BE
:108E50006FAE6F4AD2F8042391067FF569AE002207
:108E60001A601B680493049B6F4B1A68012A46F032
:108E700020067FF462AE664AD2F8042352067FF5DC
:108E80005CAE00221A601B680493049B46F0400607
:108E900053E60E4633E6654B00221A601B680593C5
:108EA0004FF0A043059AD3F81035019346F00046E1
:108EB0004CE6BEF1020F7FF41DAF032963D0002BF7
:108EC0003FF418AF984715E7BEF1020F7FF444AFA7
:108ED000032969D0002B54D13EE7BEF1020F7FF485
:108EE000A4AE032900F091800025002B3FF49EAE34
:108EF00098479BE6BEF1020F7FF4CAAE032956D015
:108F0000002B3FF4C5AE9847C2E603297FF424AF97
:108F100017F8082042EA0C0207F808200BE703299B
:108F20007FF4B6AE17F8082042EA0C0207F80820D2
:108F30009DE603297FF479AE17F80C50154307F826
:108F40000C5061E603297FF4D5AE17F8082042EAF9
:108F50000C0207F80820BCE60329BBD14FF4003E01
:108F6000D2F800C72CF4403CC2F800C7D2F800C7C2
:108F700001354CEA0E0CEDB2C2F800C7002B3FF4ED
:108F8000EEAE9847E8E64FF4403ED2F800C72CF426
:108F9000403CC2F800C7D2F800C701354CEA0E0CBD
:108FA000EDB2C2F800C78AE74FF4403ED8E74FF46D
:108FB000403ED2F800C72CF4403CC2F800C7D2F8BB
:108FC00000C701354CEA0E0CEDB2C2F800C797E7B6
:108FD00003297FF474AF4FF4003ED6E703298FD105
:108FE0004FF4003EE5E703297FF47FAF4FF40035EF
:108FF000DCF8002722F44032CCF80027DCF8002708
:109000002A43CCF8002701256FE74FF44035EFE7FE
:109010000060004004610040086100400C610040B5
:109020001061004014610040186100407C61004004
:10903000014B1B68184700BF6C220020104B984260
:1090400001D00020704730B583B002A8002300F89B
:10905000013D0D46FEF7D6FA0A4B1C7934B19DF856
:109060000700FEF7F5FA112003B030BD01229DF88C
:1090700007001D601A71FEF7EBFA2046F4E700BF07
:10908000002000406C220020034B984203D1034B88
:1090900000221A601A717047002000406C220020E4
:1090A00030B56C4AD2F8043399058BB066D5D2F846
:1090B0002431002B62D00023C2F82431D2F82431AD
:1090C00003934FF40171644B0398C2F8081393F8AB
:1090D000291009B9012151605E4902228DF818203A
:1090E000D1F88024C1F880249869D96809920022B7
:1090F000CDE90710C3E90622D3E9001406A8A0476A
:10910000544AD2F81C31BBB1534B186A5969884292
:1091100069D350480022C0F81C21D0F81C010190EE
:10912000019849B198688DF8182008915A61079004
:10913000D3E9001206A89047464AD2F84431DBB181
:109140000021454BC2F84411D2F8440193F829108C
:109150000090009809B1012111609A6962B1002262
:10916000586AD9689A610122CDE907108DF8182054
:1091700006A8D3E9001290470BB030BD354AD2F8AB
:1091800004335B07BCD5D2F80831002BB8D0324B82
:10919000996900293CD00021C2F80811D2F80811C1
:1091A00004910499D868596AD2F8182542545A6A29
:1091B000996901325A625A6A8A42A1D1DA691968F8
:1091C000002A2ED0D8685D6A1C699A610790002237
:1091D0000120DC60DA615A628DF8180008955B683E
:1091E00006A898478CE793F8280000F0FF040028B1
:1091F0008FD1C2F81C41D2F81C11029102999C68CF
:10920000186A196A205C01311962C2F81C0593E7DB
:10921000C2F80811D2F8080105900598D2F818256F
:10922000C9E793F8292012B90A4A01205060094A77
:109230004FF40170C2F80803586ADA6808900024F5
:10924000012007928DF818005A689C6106A8904783
:1092500056E700BF00200040742200202DE9F041B5
:109260005E4F06792C2505FB067582B095F82A30ED
:10927000002B40F087800D4604465949006890460F
:10928000FFF7DCFE002879D12B68591C0CD0012295
:109290004FF0A04102FA03F3C1F808352B6803F53B
:1092A000E073032241F823206B685A1C06D003F5B3
:1092B000E0734FF0A042002142F823102368AA690E
:1092C000C3F82425297D6B7D22680B43C2F86C35D9
:1092D000D5E900122368C3F81425C3F80C152B7DBB
:1092E000012B53D02C2303FB06F3FA18C2F8048099
:1092F0002A69FA50B8F1000F2DD022682B7F394D22
:109300000021C2F81C11D2F81C2100922268DDF85D
:1093100000C0C2F84411D2F84411226801910199A9
:10932000C2F804532168090B4AB25B01002ADBB280
:109330004EDB02F1604202F5614282F8003323689D
:10934000294D1B0B5AB2520903F01F03012101FAE8
:1093500003F345F822302C23246803FB0673002214
:1093600004250121C4F8005583F82A10C3E9062218
:1093700083F829205A6102B0BDE8F081112002B0C3
:10938000BDE8F081082002B0BDE8F081AB68591C4F
:1093900006D003F5E0734FF0A042002142F82310FD
:1093A000EB685A1C0DD001224FF0A04102FA03F3E2
:1093B000C1F80835EB6803F5E073032241F8232078
:1093C000EB682268A968C2F80835C2F8101589E769
:1093D000064A01F00F010A441376B0E77422002018
:1093E000A19002008000020000E100E0FCEC00E03F
:1093F000F8B52F4D047902682C2303FB0453002198
:109400005B68C2F8001583B103682A4AC3F80823D1
:109410000368294E1B0B5AB25209203203F01F0376
:10942000012101FA03F346F8223003684FF0FF32BE
:10943000D3F80CC5D3F81475D3F80815D3F8106514
:10944000C3F81425C3F80C2503689445C3F8082510
:10945000C3F8102506D00CF5E07C4FF0A0430222A3
:1094600043F82C207B1C06D007F5E0774FF0A04393
:10947000022243F82720721C06D006F5E0764FF052
:10948000A043022243F826204B1C06D001F5E071D0
:109490004FF0A043022243F821200068FFF7F4FDBB
:1094A0002C2303FB0454002384F82A306360F8BDA6
:1094B000742200208402020000E100E0F0B5314E89
:1094C00005792C2303FB056385B05C69002C53D11F
:1094D0001C62996083F828405A610268C2F81C41F6
:1094E000D2F81C11026802910121029F916002686A
:1094F000D3F808C0C2F81C41D2F81C11019101999F
:10950000D3F820E0196A5F681CF80EE00131196297
:10951000C2F81CE517B1204605B0F0BD1A6A5C69B7
:109520000168944203D819E093F828203ABBD1F897
:109530001C21002AF8D0C1F81C71D1F81C2103921B
:10954000039AD3F820E01A6A1CF80EE001321A627E
:10955000C1F81CE51A6AA242E9D30168D1F81C31AE
:10956000002BFBD00123CB6000202C2303FB0565DF
:1095700000236B6105B0F0BD112005B0F0BD0F20D8
:10958000F3E700BF74220020F0B5444BD3F8242148
:1095900089B0002A52D00021C3F82411D3F8242125
:1095A000029202228DF81020029AD3F880043C4ADD
:1095B000C3F880040790D3F83C05D3680690C2E94D
:1095C000061105931168536804A89847334BD3F8E4
:1095D0004421BAB10021324AC3F84411D3F84441BE
:1095E00090690194019C68B1D3F83C35D06806932A
:1095F0000123C2E9061105908DF8103004A8D2E9C4
:1096000000139847254BD3F82021AAB10021C3F8B5
:109610002011D3F82001224A00900098506958B1D7
:10962000D3F84C05936806908DF81010516105939E
:1096300004A8D2E90013984709B0F0BDD3F810117F
:109640000029C3D0C3F81021D3F810111448039196
:1096500003998169D3F83C458C42B7D1C569C76885
:10966000D0E900168DB1D3F800C285612CF0200539
:10967000C261C3F800520369C3600122CDE90574D9
:109680008DF8102004A8B047A0E701238561CDE93B
:1096900005748DF8103004A8B04797E7002000400B
:1096A000A02200202DE9F0430779674E4FEAC70852
:1096B00008EB070306EB830385B093F82030002BFB
:1096C00040F096800D460446604900689146FFF7D9
:1096D000B5FC002840F088802B68591C0CD0012272
:1096E0004FF0A04102FA03F3C1F808352B6803F5E7
:1096F000E073032241F823206B685A1C06D003F55F
:10970000E0734FF0A042002142F823102368AA69B9
:10971000C3F82425297D6A7D23680A43C3F86C2594
:10972000D5E900312268C2F80C35C2F814152B7D3A
:10973000012B61D008EB07029200B318C3F8049024
:109740002B69B350B9F1000F3DD021682B7F404DFC
:109750000022C1F81021D1F8101100912168DDF824
:1097600000C0C1F82021D1F8201101912168DDF855
:1097700004C0C1F82421D1F8241102912168DDF838
:1097800008C0C1F84421D1F844112268039103991B
:10979000C2F804532168090B4AB25B01002ADBB20C
:1097A0004CDB02F1604202F5614282F8003323682B
:1097B000284D1B0B5AB2520903F01F03012101FA75
:1097C00003F345F822304744226806EB870600235E
:1097D00001240821C2F8001586F82040C6E90633A6
:1097E000736105B0BDE8F083112005B0BDE8F083DA
:1097F000082005B0BDE8F083AB68591C06D003F51E
:10980000E0734FF0A042002142F82310EB685A1C8D
:109810000DD001224FF0A04102FA03F3C1F8083540
:10982000EB6803F5E073032241F82320EB6822681C
:10983000A968C2F80835C2F810157BE7064A01F09E
:109840000F010A441376B2E7A02200208995020096
:109850001003020000E100E0FCEC00E0F8B506793E
:109860002F4C0268F500AB1904EB830300215B6801
:10987000C2F8001583B103682A4AC3F808230368B5
:10988000294F1B0B5AB25209203203F01F0301214A
:1098900001FA03F347F8223003684FF0FF32D3F8A0
:1098A0000CE5D3F814C5D3F80815D3F81075C3F830
:1098B0000C25C3F8142503689645C3F80825C3F89A
:1098C000102506D00EF5E07E4FF0A043022243F8AB
:1098D0002E20BCF1FF3F06D00CF5E07C4FF0A043FA
:1098E000022243F82C207A1C06D007F5E0774FF0CF
:1098F000A043022243F827204B1C06D001F5E0715B
:109900004FF0A043022243F82120354404EB8504A4
:109910000068FFF7B9FB002384F820306360F8BDCE
:10992000A02200201003020000E100E001F06043EB
:10993000B3F1005F2CD1F0B40579244EEF007C190F
:1099400006EB840482B0636923BB6261A160026894
:10995000C2F82031D2F820C10268CDF804C0DDF889
:1099600004C0C2F85831D2F8582100920268DDF8DC
:1099700000C0D4F814C0C2F84415C2F848C5026843
:109980000121916062684AB1184602B0F0BC70478C
:1099900010207047112002B0F0BC7047036800E04F
:1099A0008AB9D3F82011D3F858210029F8D0002A19
:1099B00014BF0F2000207B1906EB830300225A619D
:1099C00002B0F0BC70470F20F5E700BFA0220020D6
:1099D00038B5C54B1C6814F0010401D1204638BDD0
:1099E000C24C2378054663B1C14B1B780020207020
:1099F00023B3FEF7ADFE0120FEF7AAFE0320FEF71B
:109A0000A7FE172D00F26D81DFE815F0C300EC0012
:109A1000EC001001D90023010201360128001B00CF
:109A200028001B006A007100710071007100710054
:109A30009A00AD0035004B0064006400FEF794FE10
:109A4000DFE7012318462370FEF7BAFE00224FF429
:109A50008041A848BDE83840FDF744BD01231846C1
:109A60002370FEF7ADFE002240F6CD41A148BDE8CF
:109A70003840FDF737BD9E4B1B78002B00F0168158
:109A80000020FEF765FE0120FEF762FE0320FEF7D0
:109A90005FFE0120FEF750FE974B14221A7000243F
:109AA0009CE7934B1B78002B00F003810020FEF70E
:109AB0004FFE0120FEF74CFE0320FEF749FE00207A
:109AC000FEF73AFE0120FEF737FE8B4B15221A7087
:109AD000002483E7FEF75EFE874B00241D707DE7C0
:109AE000FEF758FE844B0C221A70002476E7834858
:109AF000FDF74EFD0446D5F1110000F0C580002CA5
:109B000040F0C280012814D0C82505FB00F54FF4B1
:109B100000434FF4FA700021C3FB05014FF47A7241
:109B2000002301F083FA224601467448FDF7DAFC6F
:109B300004460220FEF700FE6D4B01221A704DE72D
:109B40006B4B1B78002B00F0AE800020FEF700FE70
:109B50000120FEF7FDFD0320FEF7FAFD664B122201
:109B60001A7000243AE7624B1B78002B00F09380B8
:109B70000020FEF7EDFD0120FEF7EAFD0320FEF7D1
:109B8000E7FD0020FEF7D8FD5B4B13221A7000247E
:109B900024E7574B1B78002B00F08E800020FEF747
:109BA000D7FD0120FEF7D4FD0320FEF7D1FD51487B
:109BB000FDF7EEFC504B002204461A700EE7002021
:109BC000FEF7ACFD002869D00020FEF7C1FD4FF480
:109BD0000031494B474804241C700022BDE838403E
:109BE000FDF780BC0020FEF799FD00286CD0002016
:109BF000FEF7AEFD022D4EF2666118BF4FF4003144
:109C00003D4B3C481D700022BDE83840FDF76ABC62
:109C10000020FEF7D5FD384B364806241C70002284
:109C200040F6CD41BDE83840FDF75CBC0020FEF7B2
:109C300075FD002843D00020FEF78AFD46F26661DC
:109C40002D4B2C4803241C700022BDE83840FDF742
:109C500049BC0020FEF762FD00283FD00020FEF73F
:109C600077FD254B234805241C70002241F69A11EC
:109C7000BDE83840FDF736BC0020FEF75DFD1E4B09
:109C800007221A700024A9E60220FEF761FD184B96
:109C900000221A70A2E6FEF767FD72E7FEF74CFDA0
:109CA00043F2333195E7FEF75FFD57E7FEF75CFDC2
:109CB000EFE6FEF759FD02E7FEF756FD77E7FEF700
:109CC0003BFD41F69A11BBE7FEF736FD43F2333117
:109CD00041F69A13022D08BF194691E7FEF72CFDB5
:109CE000BFE700247AE600BF1423002018230020D9
:109CF000C4220020E822002019230020C8220020CE
:109D0000032811D8012A0BD0012919D00ED302291A
:109D10000AD10E4B00EB4000034400205A707047FC
:109D200001290AD00022EFE707207047074B00EB1C
:109D30004000034400209A70704700F10E02D2B236
:109D400000EB400301490020CA547047082300205B
:109D500010B50388102B07D0112B04D1254B1868A0
:109D60000138186030B110BD224C216881B1013139
:109D7000216010BD01220221FFF7C2FF38B307287E
:109D800025D01D4B1B68002BEDD0BDE810401847B7
:109D900001220846FFF7B4FF38B1072805D0164B5B
:109DA0001B6803B198472168E1E7072202210120DF
:109DB000FFF7A6FF08B10728F1D1042202210020F5
:109DC000FFF79EFF0028EED00728E8D1EBE7072237
:109DD00002210120FFF794FF08B10728D1D100210B
:109DE00008460A22FFF78CFF0028BCD00728C8D1FC
:109DF00010BD00BF202300201C23002072DF70470D
:109E000073DF704774DF704777DF70477ADF704722
:109E10003FDF704738B502881D2A32D1037F252BDA
:109E200000D038BD838C1F2BFBD1026A1B4B013A3B
:109E300003F11F05002413F8011F12F8010F8842D7
:109E40001CBF0134E4B2AB42F5D1002CE9D14FF094
:109E5000A045134B4FF00052C5F80C254FF47A4043
:109E600043F0010398474FF08053C5F8083500F0E0
:109E700095FE22464FF420310A48BDE83840FDF7F0
:109E800031BB094B09480A49C01AC008000440F018
:109E90000500BDE83840FCF7AFBD00BF57BA02006F
:109EA00050BA020024230020E4BF02000CC00200CC
:109EB0002CBA020008B50378042B00D008BD094B6A
:109EC00009480A49C01AC008000440F00300FCF722
:109ED000E5FB074800F0C2FE0028EFD0BDE80840CF
:109EE000FDF738B8E4BF02000CC0020078BA0200E7
:109EF0007C2300200238012804D808B5074B1A78C3
:109F00000AB908BD7047002205481A7000F0A6FE85
:109F10000028F6D0BDE80840FDF71CB87B230020E0
:109F20007C2300202DE9F84F954B1B78002B00F087
:109F300033829449944A0B789448013382FB03425C
:109F40001A44521102EBC20402EB84029B1AA0FBDA
:109F50000302520802EB42029B1A2533DBB2252B87
:109F60000B708B4A00F01582262B0CBFA0216021BC
:109F7000D17443F040014A0803F0010342EA83131D
:109F800081EA930202F0010223F0040343EA820211
:109F900002F00101530843EA811382EA930202F0BE
:109FA000010223F0040343EA820202F00101530894
:109FB00043EA811382EA930202F0010223F00403D0
:109FC00043EA820202F00101530843EA811382EA64
:109FD000930202F0010223F0040343EA820202F03A
:109FE0000101530843EA811382EA930202F001025D
:109FF00023F0040343EA820202F00101530843EA1A
:10A00000811382EA930202F0010223F0040343EA7F
:10A01000820202F00101530843EA811382EA9302AB
:10A0200002F0010223F0040343EA820303F001017A
:10A030005A0842EA811283EA920303F0010322F0F4
:10A04000040242EA8302082002F00103510841EAB7
:10A05000831182EA910303F0010221F0040343EA31
:10A06000820303F001015A0842EA811283EA920353
:10A0700003F0010122F0040343EA810303F001012C
:10A080005A0842EA811283EA920303F0010122F0A6
:10A09000040343EA810303F001015A0842EA8112F2
:10A0A00083EA920303F0010122F0040343EA8103EF
:10A0B00003F001015A0842EA811283EA920303F095
:10A0C000010122F0040343EA810303F001015A086D
:10A0D00042EA811283EA920303F0010122F00403B1
:10A0E00043EA810303F001015A0842EA811283EA3C
:10A0F000920303F0010122F0040343EA810303F019
:10A1000001015A0842EA811283EA920303F0010333
:10A1100022F00402013842EA830295D1DFF87CB0D4
:10A120001C49DBF800300A701B4F1E2119700824EF
:10A130004FF0800E4EFA00FC0CF0A10304F11E0655
:10A14000C0F1070C43FA0CFCF6B2E108E3437D5C76
:10A1500003F0070301340CFA03F3E4B22B43B442D7
:10A160007B54F2D1F82C00F10100E3D1BBF80430AC
:10A17000012B40F2E580084F4FF0010A10E000BFCC
:10A18000EE180020C8180020A7C867DDABAAAAAA4D
:10A1900044230020EF180020AC240020CC1800201D
:10A1A00002F00101530843EA811382EA930101F0AE
:10A1B000010023F0040141EA8001C9B201F0010C61
:10A1C0004B0843EA8C1381EA930C0CF0010C23F04A
:10A1D000040343EA8C0C0CF001064FEA5C0343EAEB
:10A1E00086138CEA930606F0010623F0040343EA83
:10A1F000860606F00105730843EA851386EA93058F
:10A2000005F0010523F0040317F801EF43EA850583
:10A2100005F001036C0844EA83144FEACE184FEAB4
:10A220006E1348EADE1803F0020348EA03084FEA17
:10A230004E1303F0400348EA03084FEAEE0303F02D
:10A24000040385EA940048EA03084FEACE0300F0CD
:10A25000010003F0200324F0040444EA800448EAE7
:10A2600003084FEA6E0304F00109600803F00803D5
:10A270004FEA4E0E40EA891048EA03030EF0100E32
:10A2800084EA900943EA0E03DBB220F0040009F0EF
:10A29000010E40EA8E0E81EA53015A400EF0010889
:10A2A0004FEA5E008CEA930C01F0010102F001021A
:10A2B00040EA881086EAD30642EA41020CF0010C1B
:10A2C0008EEA900185EA131506F0010642EA8C0237
:10A2D00084EA531401F0010120F0040005F00105A7
:10A2E00042EAC60240EA81008EEA931E04F00104AD
:10A2F00042EA051280EAD3130EF0010E42EA44123C
:10A3000042EA8E1203F0010342EAC313DBF8002095
:10A3100002F80A3000F00103420842EA8312BBF857
:10A32000043080EA92000AF1010A00F0010022F0F4
:10A330000402534542EA80023FF732AF1A4B1A70CB
:10A340001A4B1B4A1B491846FFF758FD042219787F
:10A350000120FFF759FD01211878FFF751FD022078
:10A36000FFF736FB08B1FCF7F5FD134B1A7842F204
:10A37000333140F26F23002A18BF194600220F48DC
:10A38000FDF7B0F80C4A137883F001031370BDE8B1
:10A39000F88FC021D174ECE5044B1878FFF732FD3B
:10A3A00042F23331EAE700BFEF180020DC1800204A
:10A3B00044230020CC180020EE1800202423002085
:10A3C00000B583B008226846002100F00FFE074A5E
:10A3D0004FF0C8736846CDE90023FFF717FD08B1B9
:10A3E000FCF7B8FD03B05DF804FB00BF5000A0000F
:10A3F00038B5124C18220021204600F0F7FD104A13
:10A4000005201368207020210020A160C0251E2196
:10A41000C4F813506060A08119709388012B06D98D
:10A4200001231168C854918801339942F9DC034A29
:10A4300003490448BDE83840FFF7E0BC442300204E
:10A44000CC180020DC18002010B582B000F098F97C
:10A4500098B902AC002344F8043D0120214600F0E5
:10A4600067FA38B9204600F01DFB08B1FCF772FD11
:10A4700002B010BDFCF76EFDF4E7FCF76BFDE8E7FA
:10A4800008B54FF400410020FCF7A8F808B1FCF72C
:10A4900061FDBDE80840FCF727B800BF30B585B0C6
:10A4A000FFF7EEFFFCF7B8FF08B1FCF753FDFDF72F
:10A4B000BDFE08B1FCF74EFDFFF7C6FFFFF780FFBA
:10A4C000FFF796FF0120FFF7A3FC1C4A1C48002160
:10A4D000FCF7F6FF08B1FCF73DFD102200216846AD
:10A4E00000F084FD00250124164B174A17488DF80B
:10A4F000045069468DF80C40009300F051FB08B100
:10A50000FCF728FD114800F0A9FB08B1FCF722FD7B
:10A510004FF0A04303224FF080504FF00051C3F89A
:10A520007027C3F80C05C3F87427C3F80815FCF7A7
:10A5300065FB0028FBD1FDF78FFEF8E7259F0200A1
:10A5400028BA0200E0180020B59E02007C230020FB
:10A5500064DF7047F0B587B004460D4610461023FF
:10A5600002AA0DF103018DF80330FFF7F1FF64B388
:10A5700058BB9DF80320042A5CD0102A28D0022A58
:10A5800024D140F20323ADF8043094F801C09DF8C3
:10A590000400844553D0C5B1002301E09D421CD97D
:10A5A000E15C01310B449BB2E11849788142F5D15D
:10A5B0009D4205D9E75C0233013F9EB2BFB236BB74
:10A5C0009DF80500604544D05DB9002007B0F0BD9E
:10A5D00040F20763ADF80430D7E79DF80500604509
:10A5E00034D0002301E09D42EFD9E15C01310B44FE
:10A5F0009BB2E1181E4649788142F4D19D42E4D9CC
:10A60000A75D0233013F9EB2BFB2002EDDD0002F06
:10A61000DBD0002505E09DF803201544ADB2BD4216
:10A62000D3D2A819204402A900F0C6FC0028F2D118
:10A630000120CBE740F20543ADF80430A5E7002D3B
:10A64000BED02778013FBFB20226E0E7002633469E
:10A65000D4E7002DF5D1B8E72DE9F0470388B0F82D
:10A660000490112B98B059D01A2B804647D0102B4C
:10A6700002D018B0BDE8F087394A936818A8DB43C8
:10A6800040F8603D5168FDF72FF8009B0193019B56
:10A6900063B300273C46214601A8FDF705F828B121
:10A6A00018AB03EB4703013723F8284C0134142C73
:10A6B000F1D10D970DAE0FCE02AC0FC40FCE0FC46B
:10A6C00096E8070084E8070087B10DF10A0A254ED5
:10A6D0000AEB47073AF8025F234C20462946043428
:10A6E000FCF7D8FFA642F8D1BA45F3D1B9F1130F60
:10A6F0001BD90420FCF72EFC18B0BDE8F087047AC3
:10A700001A482409012C494620D9FCF7B9FF022C2C
:10A71000494617481ED0FCF7B3FFAAE7494615483B
:10A72000FCF7B8FF18B0BDE8F08749461148FCF7C0
:10A73000A7FF49460C48FCF7A3FF98F80F30012B00
:10A7400097D049460C48FCF79BFF92E7FCF7A2FF25
:10A7500007484946FCF79EFF18B0BDE8F08700BFE8
:10A76000CC24002044250020D0240020DC2400201C
:10A77000E0240020D4240020D824002010DF7047DB
:10A7800070B53B4D2B7884B0002B63D1394E3A49DC
:10A79000012302A83370FDF795FD039B002B4FD1D9
:10A7A000364902A8FDF78EFD039B4BB1D3E900218A
:10A7B0000020904702A8FDF78FFD039B002BF5D1E9
:10A7C0002F4A002312688DF8083002A80192FCF786
:10A7D00019FF2C4901A8FFF7D1FFB0FA80F3044616
:10A7E0005B099DF808002B70FCF732FF002C2ED17E
:10A7F000254B26491C70347091F81623EC2352091E
:10A800001341DB072FD5224B9A683ABB4FF48003E4
:10A810000B601A4902A8FDF755FD039BBBB1D3E9B4
:10A8200000210120904702A8FDF756FD039B002B55
:10A83000F5D10CE002A8FDF74FFD039B002BAFD034
:10A84000D3E90021002090470028F3D10446204698
:10A8500004B070BD0824204604B070BD1A6842F4EC
:10A8600080021A60D5E742F20200FCF773FBD0E7E2
:10A870004525002044250020B0BB0200C8BB0200D3
:10A88000ACBB0200756F02004625002000E100E02D
:10A8900048250020014B1878704700BF452500204F
:10A8A00000B583B068460849FDF70CFD019B43B134
:10A8B000D3E9002090476846FDF70EFD019B002B71
:10A8C000F6D103B05DF804FBBCBB020060DF70474B
:10A8D00069DF704761DF7047134B1B781BB330B5DE
:10A8E000124D91B034240DF1020103A8ADF80240DD
:10A8F000FFF7F0FF88B9294601A8FDF7E3FC029BAA
:10A90000002BF0D0D3E9002103A8904701A8FDF760
:10A91000E3FC029B002BF5D1E5E7052801D0FCF70D
:10A9200019FB11B030BD70474725002014BE02004E
:10A93000002900F0A48070B5524B0B6084B00C4627
:10A9400005460C22002101A800F050FB0126062339
:10A9500001A922688DF8045020208DF80660ADF81A
:10A960000830FFF7B5FF00287BD10C22002101A899
:10A9700000F03CFB002322688DF8053001A940203F
:10A980008DF806308DF80730FFF7A2FF00285AD166
:10A990000C22002101A800F029FB002322688DF879
:10A9A000043001A90120FFF793FF00283DD10C22BC
:10A9B000002101A800F01AFBF8232268019301A9E5
:10A9C000A120FFF785FF10BB0C22002101A800F099
:10A9D0000DFB9DF8043022686FF3000301A9A0204D
:10A9E0008DF80430FFF774FF08B904B070BDFDF7AF
:10A9F0007FFC254A254B26499B1ADB081B0402468F
:10AA000043F00100FBF7F8FF002004B070BDFDF734
:10AA10006FFC1D4A1D4B1F499B1ADB081B04024695
:10AA200043F00100FBF7E8FFCEE7FDF761FC164AB3
:10AA3000164B19499B1ADB081B04024643F0010020
:10AA4000FBF7DAFFB3E7FDF753FC0F4A0F4B13494F
:10AA50009B1ADB081B04024643F00100FBF7CCFF06
:10AA600096E7FDF745FC084A084B0D499B1ADB08A1
:10AA70001B04024643EA0600FBF7BEFF75E70E2003
:10AA8000704700BFA8180020E4BF02002CC00200DD
:10AA900010BD0200BCBC020070BC020024BC02005D
:10AAA000DCBB0200F8B506460768FFF70FFF336806
:10AAB000BB42054605D825BB1A4B01221A70284611
:10AAC000F8BD194B194C1A49E41AE408240444F05F
:10AAD00002042046FBF7E2FD3A462046336815495A
:10AAE000FCF70AF84FF080533268D3F80C31124962
:10AAF0009B0203F1005320469A1AFBF77DFF002DBD
:10AB0000DAD02846FDF7F4FB074A084B0B499B1A9D
:10AB1000DB081B04024643F00100FBF76DFF2846EB
:10AB2000F8BD00BF47250020E4BF02002CC0020092
:10AB300064BD020094BD0200C8BD0200F4BD020065
:10AB40004BDF704710B5114C84B001A8FFF7F8FF38
:10AB5000A8B9214602A8FDF7B5FB039B002BF4D052
:10AB6000D3E900210198904702A8FDF7B5FB039BAC
:10AB7000002BF5D101A8FFF7E3FF0028E9D0052855
:10AB800001D0FCF7E7F904B010BD00BF2CBE0200F5
:10AB90008ADF70478BDF70478CDF7047FFF7FABFA3
:10ABA00040B3F8B50D46426200210822044600F089
:10ABB0001DFA0DB32B7923722B7BA3742B6893B3EF
:10ABC000186859689A6804F1140607C69B8933808F
:10ABD000AB68002B37D01A685B68C4F80E30C4F835
:10ABE0000A2004F12802FF23C4F82821A4F82C31FC
:10ABF0000020F8BD0E207047237D658343F00403D9
:10AC000065F3C403A027502601204FF4C8712375B3
:10AC100006221823E5812572E7822683607521824A
:10AC20006281A381DDE7227D638342F0040263F346
:10AC3000C402A020012350212275E0822183637584
:10AC4000AB68002BC7D1044BC4F80A304FF0C8736F
:10AC5000C4F80E30C5E700BF0600180008B310B5F1
:10AC6000044686B01422002101A800F0BFF9FFF7C6
:10AC700091FF237D1B070BD404F5947104F114009C
:10AC8000FFF786FF044630F008000CD106B010BD77
:10AC9000636A002BF0D0012201A88DF804209847A8
:10ACA000EAE70E207047074B07480849C01AC0085A
:10ACB000000440F001002246FBF79EFE204606B04D
:10ACC00010BD00BFE4BF020014C0020044BE020079
:10ACD0002DE9F04F0388103B8DB005460C4600F17E
:10ACE0000806102B3ED8DFE803F0A83D3D3D3D3D72
:10ACF0003D3D3D3D3D933D583D3D400094F804B001
:10AD0000B5F824A0BBF1000F00F0FA80002A40F053
:10AD1000B9800BF1FF3B5FFA8BF304F1040B0BEBF3
:10AD2000830B27463A465146286AFFF713FC04373F
:10AD3000002800F0A2809DF81030227A039643F09C
:10AD4000040300218DF810308DF80810A67C002A2D
:10AD500040F0B580636A0BB102A8984749460020CD
:10AD6000FFF716FF0DB0BDE8F08F142207A80021F1
:10AD700000F03CF9626A002AF4D030687168357AD4
:10AD800008AB03C3143405211D700B9407A88DF87C
:10AD90001C1090470DB0BDE8F08F02A814220021CE
:10ADA00000F024F9237D04F1140813F00803CDF812
:10ADB000188004F5947954D0022302A88DF8083045
:10ADC0000396636A984749460020FFF7E1FE237A1D
:10ADD000002BC7D0A67CFFF7DDFE1422002107A8B8
:10ADE00000F004F93346414605F10A0004F10A0275
:10ADF000FFF7D2FE062308908DF81C300028B1D052
:10AE0000636A002BAED007A898470DB0BDE8F08F5D
:10AE100007A81422002100F0E9F82B7A012BA1D118
:10AE2000626A002A9ED0143404210B948DF82030DD
:10AE300007A88DF81C10904794E7142207A800215A
:10AE400000F0D4F8636AAA88ADF8242014340722ED
:10AE500008968DF81C200B94002B83D007A89847E8
:10AE6000D3E76179A27900297FF448AF0396F2B95C
:10AE70000322636A8DF808206DE7BB457FF452AF6B
:10AE80000396F5E71F4623461A465146286A019362
:10AE9000FFF760FB019B7A1C043368BB5F45EFD171
:10AEA0009DF81030039643F004038DF81030237A98
:10AEB00000218DF80810002B3FF44CAFA67CFFF763
:10AEC00069FE142207A800F091F83346414605F1C7
:10AED0000A0004F10A02FFF75FFE062308908DF8CE
:10AEE0001C30636A00283FF436AF002B3FF436AFC6
:10AEF00007A89847636A2EE7D7B2BB45C4D1CFE70E
:10AF0000002ACDD1BCE700BF08B5074B044613B1FA
:10AF10000021AFF30080054B1868836A03B198479E
:10AF2000204600F081F800BF0000000074BE02005F
:10AF300070B50D4E0D4CA41BA4100025A54209D1DF
:10AF40000B4E0C4C00F0F2F9A41BA4100025A542F6
:10AF500005D170BD56F8253098470135EEE756F813
:10AF6000253098470135F2E7C01A0020C01A0020AA
:10AF7000C01A0020C41A0020044B054A1B681B6A33
:10AF8000002B08BF1346D3F8EC007047F0180020E0
:10AF90005419002082B001B901A942B14BB1137814
:10AFA0000B601278101C18BF012002B070471046C9
:10AFB000FBE76FF00100F8E730B50024A24201D1B1
:10AFC000002007E0035D01340D1915F8015CAB4268
:10AFD000F4D0581B30BD10B5431E0A44914200D135
:10AFE00010BD11F8014B03F8014FF7E70244034687
:10AFF000934200D1704703F8011BF9E7034613F8A9
:10B00000012B002AFBD1181A0138704749B1FF2AD9
:10B0100085BF8A2303600A704FF0FF3098BF01207C
:10B020007047084670470000FEE700BF53B94AB9B1
:10B03000002908BF00281CBF4FF0FF314FF0FF3040
:10B0400000F072B9ADF1080C6DE904CE00F006F81D
:10B05000DDF804E0DDE9022304B070472DE9F04794
:10B06000089E04468846002B4BD18A42154667D974
:10B07000B2FA82F24AB1C2F1200701FA02F320FAD1
:10B0800007F7954047EA030894404FEA154E230C12
:10B09000B8FBFEF71FFA85FC0EFB178843EA08434E
:10B0A00007FB0CF1994209D9EB1807F1FF3080F04A
:10B0B0001B81994240F21881023F2B445B1AA4B2D3
:10B0C000B3FBFEF00EFB103344EA034400FB0CFC20
:10B0D000A44509D92C1900F1FF3380F00781A4455C
:10B0E00040F2048102382C4440EA0740A4EB0C04EF
:10B0F00000271EB1D4400023C6E900433946BDE80D
:10B10000F0878B4209D9002E00F0EB800027C6E9BA
:10B11000000138463946BDE8F087B3FA83F7002FBF
:10B1200047D18B4202D3824200F2FA80841A61EB4B
:10B13000030301209846002EE0D0C6E90048DDE771
:10B1400002B9FFDEB2FA82F2002A40F08F80491B7A
:10B150004FEA154E1FFA85F80127B1FBFEFC230CC0
:10B160000EFB1C1143EA014308FB0CF1994207D97D
:10B17000EB180CF1FF3002D2994200F2CD808446E8
:10B18000591AA3B2B1FBFEF00EFB101443EA0444BB
:10B1900008FB00F8A04507D92C1900F1FF3302D2B3
:10B1A000A04500F2B6801846A4EB080440EA0C4023
:10B1B0009FE7C7F1200CBB4022FA0CFE4EEA030EBB
:10B1C00001FA07F420FA0CF521FA0CF34FEA1E48B5
:10B1D0002543B3FBF8F92C0C08FB19331FFA8EFA40
:10B1E00044EA034309FB0AF49C4202FA07F200FA1C
:10B1F00007F10BD91EEB030309F1FF3080F08780C4
:10B200009C4240F28480A9F1020973441B1BADB239
:10B21000B3FBF8F008FB103345EA034400FB0AFADD
:10B22000A24508D91EEB040400F1FF336BD2A245FE
:10B2300069D90238744440EA0940A0FB0289A4EBB2
:10B240000A044C45C2464B4654D351D0002E69D017
:10B25000B1EB0A0564EB030404FA0CFCFD40FC406E
:10B260004CEA0505C6E90054002747E7C2F1200370
:10B2700020FA03F7954001FA02F021FA03F34FEAAE
:10B28000154E3843010CB3FBFEF71FFA85F80EFB91
:10B29000173341EA034107FB08F38B4204FA02F437
:10B2A00007D9691807F1FF3C2FD28B422DD9023FF5
:10B2B0002944CB1A81B2B3FBFEF00EFB103341EAF6
:10B2C000034100FB08F38B4207D9691800F1FF3CEA
:10B2D00017D28B4215D902382944C91A40EA0747C8
:10B2E0003BE73746304609E70746E7E61846FBE600
:10B2F0004145ABD2B8EB020A69EB0E0201381346A6
:10B30000A4E76046E9E7184695E76746D1E7814636
:10B310007CE702382C4447E7ACF1020C2B442FE7C2
:10B32000384608E73746E9E6704700BFF8B500BF82
:10B33000F8BC08BC9E467047F8B500BFF8BC08BC16
:10B340009E467047FFFFFFFFFFFFFFFFFFFFFFFF6E
:10B35000FFFFFFFF00000000000000000000D6011A
:10B3600006010000D563020041640200D1630200BF
:10B37000756172745F6C6F675F6261636B656E6449
:10B3800000000000202000207F000000A0200020FE
:10B390004261636B656E647320666C757368656487
:10B3A000000000006170700000B402002CB40200C4
:10B3B000E0B3020034B402003CB4020044B4020022
:10B3C0004CB4020054B402005CB4020020253032B8
:10B3D00078000000202020007C0000002563000091
:10B3E0001B5B313B33316D0025734C6F67732064F9
:10B3F000726F70706564202825642925730D0A001A
:10B400001B5B306D00000000257300003C25733E7F
:10B410002025733A200000000000000064B4020000
:10B420006CB4020074B402007CB402001B5B313BBC
:10B4300033306D001B5B313B33326D001B5B313BA6
:10B4400033336D001B5B313B33346D001B5B313B91
:10B4500033356D001B5B313B33366D001B5B313B7D
:10B4600033376D006572726F720000007761726E23
:10B47000696E6700696E666F000000006465627542
:10B4800067000000466174616C206572726F720023
:10B4900053797374656D20726573657400000000E4
:10B4A0000338FDD870470000303132333435363739
:10B4B0003839414243444546B8BF0200B8BF020094
:10B4C000040000007077725F6D676D74000000000B
:10B4D000556E6B6E6F776E206572726F7220636F40
:10B4E00064650000000000000CB6020001000000CE
:10B4F00018B602000200000038B602000300000087
:10B500005CB602000400000070B6020005000000F6
:10B5100084B602000600000098B602000700000092
:10B52000B0B6020008000000C8B602000900000022
:10B53000E0B602000A000000FCB602000B000000AA
:10B5400014B702000C0000002CB702000D00000030
:10B5500040B702000E00000054B702000F000000C8
:10B5600064B702001000000078B70200110000006C
:10B5700090B7020012000000A0B702001300000004
:10B58000B8B7020080000000CCB7020081000000C4
:10B59000F0B70200820000000CB802008300000037
:10B5A00028B802008400000048B8020085000000AE
:10B5B0006CB802008600000094B802009000000001
:10B5C000ACB8020091000000CCB80200920000006C
:10B5D000ECB802000082000004B902000182000001
:10B5E00024B902000282000040B902000084000079
:10B5F0005CB902000184000080B9020002840000EE
:10B60000ACB9020003840000D4B902004E52465F78
:10B6100053554343455353004E52465F4552524F94
:10B62000525F5356435F48414E444C45525F4D492B
:10B630005353494E470000004E52465F4552524F09
:10B64000525F534F46544445564943455F4E4F540D
:10B650005F454E41424C4544000000004E52465F5B
:10B660004552524F525F494E5445524E414C000094
:10B670004E52465F4552524F525F4E4F5F4D454DC1
:10B68000000000004E52465F4552524F525F4E4FEF
:10B69000545F464F554E44004E52465F4552524FFE
:10B6A000525F4E4F545F535550504F5254454400D3
:10B6B0004E52465F4552524F525F494E56414C4999
:10B6C000445F504152414D004E52465F4552524FE9
:10B6D000525F494E56414C49445F535441544500D2
:10B6E0004E52465F4552524F525F494E56414C4969
:10B6F000445F4C454E475448000000004E52465FA0
:10B700004552524F525F494E56414C49445F464C58
:10B71000414753004E52465F4552524F525F494E89
:10B7200056414C49445F4441544100004E52465FEB
:10B730004552524F525F444154415F53495A45006C
:10B740004E52465F4552524F525F54494D454F55F8
:10B75000540000004E52465F4552524F525F4E55C4
:10B760004C4C00004E52465F4552524F525F464F7E
:10B770005242494444454E004E52465F4552524F54
:10B78000525F494E56414C49445F41444452000087
:10B790004E52465F4552524F525F42555359000038
:10B7A0004E52465F4552524F525F434F4E4E5F439B
:10B7B0004F554E54000000004E52465F4552524FC6
:10B7C000525F5245534F5552434553004E52465FC8
:10B7D0004552524F525F4D4F44554C455F4E4F546A
:10B7E0005F494E495449414C495A454400000000C4
:10B7F0004E52465F4552524F525F4D555445585F29
:10B80000494E49545F4641494C4544004E52465FBB
:10B810004552524F525F4D555445585F4C4F434B24
:10B820005F4641494C4544004E52465F4552524F97
:10B83000525F4D555445585F554E4C4F434B5F46F4
:10B8400041494C45440000004E52465F4552524F1C
:10B85000525F4D555445585F434F4E445F494E49E2
:10B86000545F4641494C4544000000004E52465F3B
:10B870004552524F525F4D4F44554C455F414C52DB
:10B88000454144595F494E495449414C495A454400
:10B89000000000004E52465F4552524F525F5354D3
:10B8A0004F524147455F46554C4C00004E52465F53
:10B8B0004552524F525F4150495F4E4F545F494D80
:10B8C000504C454D454E5445440000004E52465F95
:10B8D0004552524F525F464541545552455F4E4F77
:10B8E000545F454E41424C45440000004E52465F75
:10B8F0004552524F525F494F5F50454E44494E4763
:10B90000000000004E52465F4552524F525F445273
:10B91000565F5457495F4552525F4F5645525255F4
:10B920004E0000004E52465F4552524F525F445205
:10B93000565F5457495F4552525F414E41434B0059
:10B940004E52465F4552524F525F4452565F5457D3
:10B95000495F4552525F444E41434B004E52465F51
:10B960004552524F525F424C455F495053505F52CF
:10B97000585F504B545F5452554E43415445440018
:10B980004E52465F4552524F525F424C455F4950BE
:10B9900053505F4348414E4E454C5F414C524541E8
:10B9A00044595F4558495354530000004E52465F76
:10B9B0004552524F525F424C455F495053505F4C85
:10B9C000494E4B5F444953434F4E4E4543544544C3
:10B9D000000000004E52465F4552524F525F424CAB
:10B9E000455F495053505F504545525F52454A4567
:10B9F000435445440000000011121314636C6F633C
:10BA00006B000000434C4F434B0000004750494F30
:10BA1000544500005052530055415254000000005C
:10BA2000554152544500000024230020556E737583
:10BA300070706F72746564206865616465722065FA
:10BA400076656E743A2025640D0A0000000000003F
:10BA50000338FDD8704700001ECEEEB7A977F8E393
:10BA6000B616542F9D5333D8BA980824CB3BFC719B
:10BA7000A3F455943056E6005363616E2074696DEB
:10BA80006564206F75742E005570646174650000E4
:10BA900044656C65746500004F7574646174656419
:10BAA0002028302900000000536572766963652004
:10BAB0006368616E6765642070656E64696E672097
:10BAC000666C6167000000004F75746461746564A2
:10BAD00020283229000000004F7574646174656489
