:020000022000DC
:1060000000000120B5620200DD620200DF620200D2
:10601000E1620200E3620200E562020000000000AB
:10602000000000000000000000000000E762020025
:10603000E962020000000000EB620200ED62020073
:10604000558D0200EF62020031960200EF620200FD
:10605000EF620200EF620200E9900200EF620200CC
:10606000EF620200EF620200EF620200EF620200E4
:10607000EF620200EF620200EF620200EF620200D4
:10608000EF62020089720200EF620200EF6202001A
:1060900029730200EF62020039B10200EF620200D0
:1060A000EF620200EF620200EF620200EF620200A4
:1060B000EF620200EF62020000000000000000003A
:1060C000EF620200EF620200EF620200EF62020084
:1060D000EF620200EF620200EF62020000000000C7
:1060E00000000000000000000000000000000000B0
:1060F00000000000000000000000000000000000A0
:10610000000000000000000000000000000000008F
:10611000000000000000000000000000000000007F
:10612000000000000000000000000000000000006F
:10613000000000000000000000000000000000005F
:10614000000000000000000000000000000000004F
:10615000000000000000000000000000000000003F
:10616000000000000000000000000000000000002F
:10617000000000000000000000000000000000001F
:10618000000000000000000000000000000000000F
:1061900000000000000000000000000000000000FF
:1061A00000000000000000000000000000000000EF
:1061B00000000000000000000000000000000000DF
:1061C00000000000000000000000000000000000CF
:1061D00000000000000000000000000000000000BF
:1061E00000000000000000000000000000000000AF
:1061F000000000000000000000000000000000009F
:1062000010B5054C237833B9044B13B10448AFF3F0
:1062100000800123237010BDB81A00200000000088
:1062200028C5020008B5034B1BB103490348AFF36F
:10623000008008BD00000000BC1A002028C5020034
:10624000154B002B08BF134B9D46A3F5803A002148
:106250008B460F461348144A121A05F048F90F4BA3
:10626000002B00D098470E4B002B00D09847002001
:10627000002104000D000D48002802D00C48AFF3A7
:10628000008005F0E5F82000290004F04BFB05F044
:10629000CBF800BF00000800000001200000000053
:1062A00000000000B81A0020202500200000000097
:1062B000000000000649074A074B9B1A03DD043B18
:1062C000C858D050FBDC02F09BF9FFF7B9FF000083
:1062D000E8C50200A8180020B81A0020FEE7FEE773
:1062E000FEE7FEE7FEE7FEE7FEE7FEE7FEE7FEE786
:1062F000F0B595B0002415460F4608461E4602F03C
:1063000057F8384623460895082205A91A9D09968C
:106310000D950A948DF82C400C9402F0A3F89DF88A
:1063200014308DF81140DDE9061003F00302012A54
:10633000CDE9020127D0022A04D0384602F03CF809
:1063400015B0F0BDBDF81650C3F3C2038DF8103080
:10635000AD090826082D2C4628BF082433462246BE
:106360000EA9384602F07EF82D1B214608AB02AA82
:106370000EA8264400F03EFD002DEBD1384602F079
:106380001BF815B0F0BDBDF81460059DC6F383166B
:10639000C3F3C204B2000EA9384608238DF810409A
:1063A000C5F3952502F05EF808AB324628460EA9E3
:1063B000009302AB00F078FC384601F0FDFF15B009
:1063C000F0BD00BF014B01221A707047181B00205E
:1063D000704700BF00B583B0044B0093044A4023CC
:1063E000FFF786FF03B05DF804FB00BFF563020012
:1063F000D81A002038B50E480E4D03780E4CEB5CD1
:106400000025D2B2257053B90C3003F057FB58B9B0
:106410000A4B1B7813B12378002BFCD038BD043015
:1064200003F084FD0028F3D000F0E6FEF0E700BFA3
:10643000A81800201C250020181B0020D41A0020BA
:1064400070B51348134A0378D35C88B0DBB90C30BD
:1064500003F0CEFA104D0FCD6C460FC495E80F0037
:1064600008AD062645F8206D84E80F002946002275
:10647000074802F003FC08B100F0BEFE074B002203
:106480001A7008B070BD043003F0E8FCE2E700BF0A
:10649000A81800201C25002044B80200D41A0020AF
:1064A00070B50D4D0FCD88B06C460FC495E80F0048
:1064B00008AD062645F8206D84E80F002946074AF6
:1064C000074802F0DBFB08B100F096FE054B012205
:1064D0001A7008B070BD00BF44B80200C563020066
:1064E000A8180020D41A002008B5FFF7D9FF04210E
:1064F000034800F08FFB034B01225A7108BD00BF17
:10650000D0C50200BC180020F0B5324C85B004F5AF
:10651000836001F05FFA04F2144001F05BFAD4E901
:10652000013703EA0702D01C04EB800114F82000B5
:1065300010F0040044D003F1020C0E7806F00306BC
:10654000012E654635D0022E02F1030621D004EB60
:1065500086010028F1D104EB82020133D268019256
:106560003B4004EB830302F00302012ADE6829D0DA
:10657000022A23D1BDF806309B090333360C05EB04
:106580009305154801F032FA00B16560304605B058
:10659000F0BD4B880CEB931307EA0302D11C03F107
:1065A000020C14F82100654604EB810100F00400A0
:1065B000CFE70B88C3F383136344EDE70026E0E7DE
:1065C0009D1CC8E7BDF80430C3F38313360C1D448B
:1065D000D7E700BFEC1B0020002000200B4B0C482D
:1065E00010B50022FF21C3F818249960C3E90022E6
:1065F000C3F8142483F8202401F096FE044610B951
:10660000044801F0A3FF204610BD00BFEC1B002092
:106610005CC5020084B8020021B9124B03EBC00034
:1066200000687047104A0F49521AD20815D030B48A
:106630000E4D2B88834212D0002303E035F823400F
:10664000844205D001339A42F8D1002030BC704713
:1066500001EBC300006830BC704710467047084625
:10666000F8E700BF70C50200D0C50200B41A0020D0
:10667000094B013903EBC00003290BD8DFE801F017
:10668000020806040220704740797047007970477D
:10669000042070470020704770C502002DE9F043C8
:1066A00083B002AB002203F8012DDFF8DC9007462F
:1066B00018468846D9F8084001F0F6F8D9E90132C1
:1066C000D9F80060134401339B1B012B58D809F201
:1066D0001C450121284601F065F9FFF715FF014629
:1066E000284601F05FF9D9E90132D9F800101344C6
:1066F00001335B1A012BECD90A4003320523023126
:106700009DF8070049F82230C9F8001001F0F2F8AE
:1067100000211C4801F024F980F31000731C234071
:1067200009EB830300043440033440EA1740D86087
:1067300019F8243067F3C50309F8243039F82430F8
:106740006FF3891329F8243059F8242068F39F2225
:106750001346012161F301036FF3820349F82420FA
:1067600009F8243099F820341BB906E000F00EF83F
:1067700018B1D9E900329A42F8D103B0BDE8F083EC
:106780003146B9E708200020EC1B00202DE9F04736
:10679000934C002384B0C4F81834BFF34F8FD4E96E
:1067A000015605EA0602D31C04EB830114F82330DA
:1067B000580719D527680B7803F00303012B43D042
:1067C000022B03D14B88023505EB931506EA05022F
:1067D000D4F81804D31C04EB830128B9AF4239D98B
:1067E00014F823305B07E6D404EB82026B1CD268FA
:1067F0000192334004EB830302F00302DB6802934F
:10680000022A05F1020700F08D80012A26D0D4F873
:1068100010543DB12B6828469B689847EB681D686B
:10682000002DF7D16F48704B7049C01AC0080004A2
:1068300040F00200FFF732FFD4E90030C01A18BF61
:10684000012004B0BDE8F0870B880235C3F3831341
:106850001D44BBE7676004B0BDE8F087BDF80420C5
:106860006348C2F38313062B28BF062363F3891200
:1068700002339900ADF8042001F058FD804600284D
:10688000C5D001F095FD0023082201A9404601F082
:10689000B5FDBDF8043013F4707F00F09F806FF0F9
:1068A000010AAAEB050A082506EA070103312B466F
:1068B000042204EB8101404601F0A0FDBDF8043044
:1068C00007F101090AEB0902C3F3831393424F4610
:1068D00005F10405E8D8D4F81834002B68D1D4F8B1
:1068E000105465B1EB685A7928464146002A5BD0BE
:1068F0002B681B689847EB681D68002DF2D1404655
:1069000001F05AFD04A8002300F80D3D00F0CCFF73
:10691000D4F818340BB9C4F804909DF8030000F0C3
:10692000E9FF89E7BDF8063031484FEA93194D4633
:10693000502D28BF502565F38F1305F10801ADF8E0
:10694000063001F0F3FC804600283FF460AF26EAF1
:10695000070A0AF1010A01F02BFD4FEA8A0A002317
:10696000082201A9404601F049FD55452BD9EBB25B
:10697000BAF1000F20D006EA0701A3EB0A030331A6
:1069800004EB8101DDB252460823404601F036FD9A
:106990002A460AF108031749404601F02FFD09F184
:1069A000030907EB990996E71D68002D9AD1A6E720
:1069B000404601F001FD3FE72A4608230D494046C5
:1069C00001F01CFDEBE706EA0701033104EB81014E
:1069D0002A460823404601F011FDE0E7B9467AE770
:1069E000EC1B002098C5020070C5020090B80200A0
:1069F0005CC50200F81B00202DE9F04782B002AB15
:106A0000002403F8014DDFF8ECA007461846914634
:106A10008846DAF8084000F047FFDAE90132DAF890
:106A20000060134401339B1B022B5ED80AF21C4505
:106A30000121284600F0B6FFFFF766FD0146284613
:106A400000F0B0FFDAE90132DAF800101344013344
:106A50005B1A022BECD90A400332033145239DF81F
:106A600007004AF82230CAF8001000F043FFB31CB8
:106A700023400AEB830300211D48C3F80C9000F06B
:106A80006FFF80F31000731C23400AEB83030004A4
:106A90003440033440EA1740D8601AF8243067F3D2
:106AA000C5030AF824303AF82430012161F3891330
:106AB0002AF824305AF8242068F39F22134661F301
:106AC00001036FF382034AF824200AF824309AF86D
:106AD00020341BB906E0FFF759FE18B1DAE900329D
:106AE0009A42F8D102B0BDE8F0873146B3E700BF63
:106AF00008200020EC1B00202DE9F04F83B002ADF0
:106B0000002405F8014D3B4C8046284693469A46A2
:106B10008946A56800F0C8FED4E90132276813440D
:106B20000133DB1B032B63D804F21C4601213046E2
:106B300000F038FFFFF7E8FC0146304600F032FF76
:106B4000D4E901322168134401335B1A032BEDD9D8
:106B50000A400332852344F8223004319DF80700AF
:106B6000216000F0C7FEBA1CFB1C2A402B4004EB3E
:106B7000820204EB830300211F48C2F80CB0C3F863
:106B80000CA000F0EDFE80F310007B1C2B4004EB0A
:106B9000830300043D40033540EA1840D86014F8F0
:106BA000253068F3C50304F8253034F82530022277
:106BB00062F3891324F8253054F8252069F39F22C5
:106BC0001346012161F301036FF3820344F825208A
:106BD00004F8253094F820341BB906E0FFF7D6FD01
:106BE00018B1D4E900329A42F8D103B0BDE8F08F71
:106BF0003946ADE7EC1B002008200020044BD3E908
:106C000000239A4201D0FFF7C1BD0020704700BFAA
:106C1000EC1B002030B4184DD5F8104400215CB1B5
:106C2000E3681A798A4204D116E0DB681A798A424D
:106C300012D01B68002BF8D1C3681971D5F8103435
:106C400093B1DA68C36812681A60D5F81034DB684B
:106C5000186030BC0846704701310A29DFD14FF077
:106C6000FF31084630BC7047C5F81004C268136095
:106C7000084630BC704700BFEC1B002038B5094BFC
:106C8000D3F81044012583F820544CB1E3685D71BA
:106C9000236820465B689847E3681C68002CF5D1A0
:106CA00038BD00BFEC1B00202DE9F04784B01D4625
:106CB0000C9C002394F80C802373EB8881460E46CD
:106CC0001746002B40D1297A05290ED06B7AA88867
:106CD00073BB404B53F821A00021FFF79DFC5246A7
:106CE00003463D49204600F0F9FE062F09D8DFE8AB
:106CF00007F0046A4249525D33004946204600F0DD
:106D0000EDFE2B7A052B05D06B7A5BB93349204613
:106D100000F0E4FE204600F0D5FE84F80C8004B0BC
:106D2000BDE8F0872E4A2F49204600F0D7FEEDE758
:106D3000FFF79EFC2C4B2B4953F82020204600F0F7
:106D4000CDFE297AA888C4E7254A00922749284A17
:106D5000204600F0C3FEB6E7D6E90410D6E90023CA
:106D60000390D6E902070291CDE900074946204683
:106D700000F0B4FEC5E74946D6E90023204600F0FE
:106D8000ADFEBEE7B168D6E9002320460091494632
:106D900000F0A4FEB5E7D6E90201D6E9002301918F
:106DA00000904946204600F099FEAAE7D6E9037113
:106DB000B068D6E900230291CDE900074946204694
:106DC00000F08CFE9DE732684946204600F086FEC2
:106DD00097E700BF1CB902000CB9020018B9020005
:106DE00000B9020008B90200A8B80200E8B8020021
:106DF000E0B80200082900D970472DE9F04F1D4680
:106E0000904600232A7B2B7385B0B8F80630039296
:106E100007460E46002B7BD198F80810052911D0A3
:106E200098F80930B8F80400002B63D13C4B53F8B4
:106E300021400021FFF7F0FB22460346394928464E
:106E400000F04CFEDFF8FCB0DFF8FC90002405E019
:106E50003A5D013400F042FE082C09D0A6424946B2
:106E60002846F5D85946013400F038FE082CF5D1F3
:106E70002D49DFF8D8B0DFF8D890284600F02EFE74
:106E800000240CE017F804A0BAF17E0F23D92E22BB
:106E900049462846013400F021FE082C08D0A642BD
:106EA000F0D859462846013400F018FE082CF6D1D7
:106EB00098F80830052B02D098F80930A3B91B497F
:106EC000284600F00BFE284600F0FCFD039B2B73C8
:106ED00005B0BDE8F08F04F0DFFA50445246437825
:106EE00013F0970FD3D0D3E7114A1249284600F088
:106EF000F5FDE4E7FFF7BCFB0F4B0E4953F82020EC
:106F0000284600F0EBFD98F80810B8F804008DE76B
:106F1000074A009209490A4A284600F0DFFD7BE74C
:106F20001CB902000CB90200D8B8020018B902005E
:106F300000B9020008B90200A8B80200E8B80200CF
:106F4000E0B80200D4B80200CCB8020014B90200C4
:106F5000DCB80200434B1978002900F081802DE94C
:106F6000F04F002487B001258E4603E00134E4B2DF
:106F7000744560D23C4B27B21E6816F837C0ACF19E
:106F8000200205FA02F9394ACCF12003D2E90001C6
:106F900025FA03F349EA030905FA0CF800EA0802A6
:106FA00001EA0903134306EBC70BDFD021EA09030B
:106FB0002E4920EA08026046C1E9002302F08AF85F
:106FC00016F837C0ACF1200205FA02F201920199DD
:106FD000CCF12003C6B225FA03F3ACF12002194329
:106FE00006FA02F30393224B0191D3E90023CDE982
:106FF000042305FA0CF30093CCF12001039B26FA3D
:1070000001F10B43039306FA0CF30293DDE90467E5
:10701000DDE9002316401F4032463B46DDE90267AA
:10702000BB4208BFB24209D00E4B013493F800E0D6
:10703000E4B274459ED307B0BDE8F08F9BF8011011
:10704000DBF80430A1F10101B1FA81F14909091A13
:10705000B1FA81F14909002BE6D060469847E3E791
:10706000704700BFA8200020E0200020D82000208A
:10707000D02000202DE9F84F0646244800F0DAFB26
:10708000D8B9234F0123A6F1200103FA01FBC6F171
:107090002002D7E9000123FA02F24BEA020B03FABD
:1070A00006FA00EA0A0201EA0B03134307D020EABA
:1070B0000A0421EA0B05C7E90045BDE8F88F304610
:1070C00002F008F8134ED6E90089C8B148EA0A036D
:1070D00049EA0B049846A146D7E900234BEA030589
:1070E0000D4B0A4819684AEA02044B464246C6E973
:1070F0000023C7E900450022BDE8F84F00F044BB7B
:1071000028EA0A0829EA0B09E6E700BFB0200020B8
:10711000D8200020D0200020AC200020042A36D91E
:107120002DE9F04182B00E460546144601F088FE76
:10713000002836D01D491E4A1E4B0D601E481F49AF
:107140001C60167000230022741EC0E90023C1E9F0
:107150000023E4B2EEB105EBC404194F083D4FF033
:107160000008032601E0AC4213D0A37820788DF804
:1071700006803A4601A98DF804608DF8053001F0CB
:1071800069FE083C0028EED002B0BDE8F08107207F
:1071900070470C4A0C48002100F0E4FA02B0BDE848
:1071A000F08101F009FE0028C4D0EDE7E0200020C6
:1071B000A8200020AC200020D0200020D8200020D3
:1071C00075700200556F020088B9020070B5084D55
:1071D0002B785BB1074E00243368012113F834008B
:1071E00001F016FF2B780134A342F5D8002070BDC2
:1071F000A8200020E020002000B585B000230390E7
:10720000194601AA44F20100CDE9013300F004F867
:1072100005B05DF804FB00BF10B572B6FFF72EFD98
:10722000FFF7ECFC0028FBD1104B114C1149E41A7C
:10723000E408240444F00100FFF730FA0E4B1B6809
:10724000DB0700D500BE44F002000C49FFF726FA28
:10725000BFF34F8F0A490B4BCA6802F4E062134335
:10726000CB60BFF34F8F00BFFDE700BF70C50200CA
:1072700098C502008CB90200F0ED00E098B9020058
:1072800000ED00E00400FA05F8B5204A204B002488
:10729000C2F84041C2F84441C2F84841C2F84C41EA
:1072A000C2F80041C2F804411B6833B31949D2F84F
:1072B00004550A68AD1A1A6825F07F45AA42274688
:1072C0000DD8197CDE69AD1A144419B11F74D3E9C5
:1072D000052090471EB133461A68AA42F1D90E49DB
:1072E0000E4A0B7812789A4208D00D490D4A41F89F
:1072F00023404FF48013C2F80031F8BD531CDBB2B9
:10730000022B08BF00230B70EFE700BF0010014005
:107310000422002000220020FD210020FC2100206A
:10732000F421002000E100E02DE9F04F8C4A8D4966
:1073300013780978DFF85082994285B0D8F800A018
:1073400000F07B810133DBB2022B08BF00238648AB
:107350001370864A076852F823107B1823F07F4386
:1073600000240360534626462046A446ABB11A6863
:107370008A4200F26581DC68C3F800C0891A1044B3
:10738000DA6934B13D1825F07F45C3E90154DE6167
:107390001E4613460124002BE9D1002C40F07C81CD
:1073A00001230093724B734FDFF8E09143F0010328
:1073B000019355464FF0000B46B3D6E901C1344660
:1073C000F669694B6C481A68ACEB020323F07F4303
:1073D000834248D80B44236000220121C4E90122E2
:1073E000E2612174002D5DD02A689A424DD2284670
:1073F00003E00A689A424FD20846C1699B1A0029E5
:10740000F7D12360E161C461002ED6D17878397854
:10741000884264D00B4603EB43034C1CBA7807EB5D
:10742000C303E1B28A421A79397004BF002139706E
:10743000022A9C6844D0032A38D0012AE8D1227C51
:10744000002AE5D1D3F80CC0C4F804C01969A160C2
:107450005869E06099F800009B69A3610028B0D0EA
:1074600062609446ADE7A2EB0C0222F07F428A42B2
:1074700002D28B1A2360AFE700230122C4E9003354
:10748000A360E36122746DB12A68C8F80040D31A82
:107490002B60E56125468FE7D21A0A602360E1611F
:1074A000C461B1E7C8F80040254685E7002DAFD09C
:1074B00000232B74ED69002DFBD1C8F80050A5E71F
:1074C0004DB1AC422B4603D1E4E094422FD0134699
:1074D000DA69002AF9D10023237488429AD1BBF1DA
:1074E000000F01D1554553D0002D56D1234E244ACB
:1074F0001F4C4FF480334FF400310127C2F8801045
:107500003C43C6F848334FF43C60C6F80833776014
:10751000A047154BB7604FF43C601D60A047194B66
:107520001D70002389F8003005B0BDE8F08FA3423C
:1075300000F09180E0692168D861002800F0868021
:107540002A4603680B440360AA424FF000033978CF
:10755000787823741CBF15464FF0010BBDE700BFC0
:10756000FC210020FD21002000220020F421002029
:10757000B0B90200E4200020FEFF7F0000100140AF
:1075800000E100E0F121002004220020F021002091
:10759000009B002BC5D0002DA8D0434B434A1C684C
:1075A000D2F80465424FD5F800A03978331B23F098
:1075B0007F43DD1CB9B93F493F4B4FF48030C2F8DF
:1075C00044034FF00108C2F804034FF40030C1F83F
:1075D000800143F001030860C2F800804FF43C6072
:1075E000984787F80080AA452CBF04EB0A0363196B
:1075F0002E4923F07F43C1F84035D1F80425921B72
:107600009B1B22F07F4223F07F4303329A4288D9AA
:10761000294BD1F80425C1F8402543F001034FF46C
:107620003C609847234B4FF40032C3F800210023FD
:1076300089F8003005B0BDE8F08F00260096B1E66D
:1076400074BB521A1A6001230093ABE60023397809
:107650007878237441E71946EA69C8F8002092B99E
:10766000CDE90231114BDFF840C001209860019B49
:1076700089F80000CCF800204FF43C609847DDE921
:107680000231D8F80020C8690968D86100287FF461
:1076900058AF59E72946DFE7C8F800309A467FE639
:1076A000C8F800309A46CCE70022002000100140C4
:1076B000F121002000E100E0B0B902002DE9F8431B
:1076C0001F4D204E204FDFF898804FF480334FF449
:1076D00000324FF001090024C6F8802047EA09076C
:1076E000C5F848334FF43C60C5F80833C5F804903A
:1076F000B847C5F808904FF43C60C8F80040B84758
:10770000124A134B13491C601470134B134A0C702C
:107710000B2114701C8099704FF48012C023C6F89E
:10772000802186F814333260C5F8084586F8113395
:10773000D5F80435C8F800302046BDE8F88300BF0E
:107740000010014000E100E0B0B90200F12100208A
:1077500004220020FC210020E4200020FD21002044
:1077600000220020074B9B784BB132B128B103684F
:10777000187C20B959745A61704707207047082057
:10778000704700BFE42000202DE9F047264CA37885
:1077900082B0002B3CD000283AD004293CD9436960
:1077A000002B35D0814602A899F811300026012B14
:1077B00000F8016D0CBF8846B04617468A4600F0B7
:1077C00073F86378A17822789DF807005D1CEDB20C
:1077D000A94208BF3546AA4222D003EB430304EB7B
:1077E000C3030121114AC3F808901971D2F8042586
:1077F0006570C3E9032AC3E9058700F07BF80C4BE9
:107800004FF480123046C3F8002102B0BDE8F08783
:10781000082002B0BDE8F087072002B0BDE8F0877D
:1078200000F068F80420F0E7E42000200010014098
:1078300000E100E0F0B51A4CA37883B043B338B34D
:1078400043692BB3064602A8002500F8015D357494
:1078500000F02AF86278A77821789DF80700531C79
:10786000DBB29F4208BF2B46994214D002EB420282
:1078700004EBC202022196601171637000F03AF8C5
:10788000084B4FF480122846C3F8002103B0F0BD26
:10789000082003B0F0BD00F02DF80420F9E700BF88
:1078A000E420002000E100E070B4EFF3108472B631
:1078B0000D4B9A68AAB90D490D4E01259D60D1F86E
:1078C000805035401D60C1F88060D1F884505D6003
:1078D0004FF0FF33C1F88430027004B962B670BC57
:1078E000704701230370F8E71025002000E100E055
:1078F000FC06FFBD094B9A687AB170B910B4EFF37A
:10790000108172B6064A1C6814605C685460986006
:1079100001B962B65DF8044B70477047102500202E
:1079200000E100E001F01F024B09012100EB8300A0
:10793000914000F01FB800BF01F01F020123490968
:10794000934000EB8100D94300F020B84B0901F0CF
:107950001F0150F82300C84000F00100704700BF2D
:1079600050E8002F0B4640E8003C9CF0000FF7D198
:107970001046704750E8003F43EA010240E8002CFF
:107980009CF0000FF6D11046704700BF50E8003F52
:1079900003EA010240E8002C9CF0000FF6D11046EB
:1079A000704700BF50E8003F03EB010240E8002CA5
:1079B0009CF0000FF6D11046704700BF50E8003F22
:1079C000A3EB010240E8002C9CF0000FF6D110461A
:1079D000704700BF012350E8002F42EA030C40E843
:1079E00000C191F0000FF6D160467047002350E8C7
:1079F00000CF0CEA030240E8002191F0000FF6D11D
:107A000060467047B8B130B4D0E90112521A046828
:107A1000D2B2531E2160DBB242B101680A685C1E1B
:107A2000551C0D601370E3B2FF2BF6D103680020E4
:107A3000187130BC70470E20704700BFF0B583B09E
:107A400002AB002503F8015D04461846FFF72CFF42
:107A5000D4E900311A688A4210D9511E1960216890
:107A6000A3680F6812F8015C0A79268AE068DB1BBC
:107A7000DBB29A4206FB050538BF0B719DF8070083
:107A8000FFF738FF284603B0F0BD00BF30B583B024
:107A900002AB002203F8012D054618460C46FFF7FD
:107AA00003FF2A681368591C1160E9682A8A641A5E
:107AB000B4FBF2F41C709DF80700FFF71BFF03B046
:107AC00030BD00BF826842B110B504464369016809
:107AD000006998470023A36010BD70470EB400B53D
:107AE00082B0039929B102AA04AB42F8043D00F028
:107AF000A9F802B05DF804EB03B070472DE9F04F30
:107B0000924683B051450F4605461E46DDE90CB24C
:107B1000C0F092800B464FF00108B3FBFAF39A4590
:107B200008F10108F9D9B04538BFB04612F0010993
:107B3000A96802D1BBF1000F54D1012402E0013E3B
:107B40000AFB04F4012EFAD8B7FBF4F08245F7D90A
:107B50003B4E02E0A968B7FBF4F0335C2A680A2BBD
:107B600004FB107702EB010E01F1010029D0A8609F
:107B70008EF80030D5E90131994202D32846FFF74B
:107B8000A1FFB4FBFAF4002CE4D1B9F1000F15D039
:107B9000BBF1000F12D0C34510D92024AB682A686E
:107BA000591CA960D454D5E901329A420BF1FF3B2C
:107BB00014D2BBF1000F01D0C345EFD103B0BDE833
:107BC000F08FA8604FF00D005054D5E901108842A5
:107BD0001DD2296801EB000E0130C8E72846FFF7E7
:107BE00071FFE6E7930722D42024C345A5D92B686B
:107BF0004A1CAA605C54D5E9013199420BF1FF3B64
:107C000010D2BBF1000F98D0C345F0D195E72846BC
:107C10000193FFF757FFAA682968019B501C01EBED
:107C2000020EA4E72846FFF74DFFA968E9E7002EFA
:107C30000CBF30242024D8E74FF0010873E700BFC1
:107C4000B8B90200002900F0B9822DE9F04F0546CD
:107C500087B091460C460E78DFF8C8A64FF00D0BA2
:107C600013E0AB6828680A2E03F1010200EB030160
:107C700000F04B82AA600E70D5E901329A4280F082
:107C80001B812678002E00F01E810134002E00F0AA
:107C90001A81252EE5D12346002713F8012B2D2A22
:107CA00000F0E380302A00F0E4802B2A00F0D4803A
:107CB0002A2A00F00D81A2F13006F1B2092903D978
:107CC0007DE2A1F130060346184606EB860110F866
:107CD000012BA2F13004092C02EB4101F1D92E2A2B
:107CE00000F002814FF00008013301E013F8012B8E
:107CF00002F0FB0168291C46F8D0253A532AC0D867
:107D000001A353F822F000BFF3800200837C02003D
:107D1000837C0200837C0200837C0200837C02005F
:107D2000837C0200837C0200837C0200837C02004F
:107D3000837C0200837C0200837C0200837C02003F
:107D4000837C0200837C0200837C0200837C02002F
:107D5000837C0200837C0200837C0200837C02001F
:107D6000837C0200837C0200837C0200837C02000F
:107D7000837C0200837C0200837C0200837C0200FF
:107D8000837C0200837C0200837C0200837C0200EF
:107D9000837C0200837C0200837C0200837C0200DF
:107DA000837C0200837C0200837C0200837C0200CF
:107DB000837C0200837C0200837C0200837C0200BF
:107DC000837C0200837C0200837C0200837C0200AF
:107DD000837C0200D7800200837C0200837C020047
:107DE000837C0200837C0200837C0200837C02008F
:107DF000837C0200837C0200837C0200837C02007F
:107E00007B7E02005D800200837C0200837C020096
:107E1000837C0200837C02005D800200837C020080
:107E2000837C0200837C0200837C0200837C02004E
:107E3000837C0200C57F0200837C0200837C0200F9
:107E40003D7F0200837C0200217F0200837C0200D0
:107E5000837C0200D780020047F004071C462346BB
:107E600013F8012B2D2A7FF41DAF47F001071C46A4
:107E7000F5E747F002071C46F1E7D9F800301A1D74
:107E8000C9F800201E78AB680A2E0CD12A68591C4C
:107E9000A96002F803B0D5E90123934203D3284631
:107EA000FFF710FEAB682A68591CA960D654D5E9C3
:107EB00001329A42FFF4E5AE2846FFF703FE26782A
:107EC000002E7FF4E2AE2B7B23BB07B0BDE8F08F22
:107ED000D9F80020111DC9F80010166862782E2A02
:107EE00004F102007FF4FEAE5A78A2F13003092BB0
:107EF00000F2BD814FF0000808EB880802EB48084B
:107F000010F8012FA2F13003092BA8F13008F3D9A2
:107F10000346E9E6284607B0BDE8F04FFFF7D2BDBB
:107F2000D9F800301A1DC9F8002019680197434696
:107F300000960A222846FFF7E1FDA2E6D9F80030B4
:107F40001A1DC9F80020D3F80080FB0700F1E88073
:107F5000B8F1000F00F0A181404603F0D0FA0746C7
:107F6000BE4215D9A6B1202100E08EB1AA682B68C7
:107F7000501CA8609954D5E901329A4206F1FF36A7
:107F800004D328460391FFF79DFD0399BE42ECD12F
:107F900008F1FF3818F8016F002E3FF472AEAB689D
:107FA00028680A2E03F1010200EB030100F0908122
:107FB000AA600E70D5E901329A42EBD32846FFF74A
:107FC00081FDE7E7D9F80020131DC9F80030AB6840
:107FD00029681768581C3022A860CA54D5E90123C3
:107FE000934280F0E6802A68581C7821A860D1541A
:107FF000D5E90123934280F0D7800F2F03D93A4669
:1080000012090F2AFCD84FF080560DE0AA6081F8C3
:108010000080D5E901329A4202D32846FFF752FD8B
:1080200036093FF42EAEAB68B7FBF6F21AF80280C1
:108030002868B8F10A0F06FB127700EB030103F181
:108040000102E3D1AA6000F803B0D5E901329A42F7
:1080500080F049812B6899180132D7E7D9F80030B0
:108060001A1DC9F80020196881EAE173A3EBE173D6
:10807000092B40F30E81AA480122A0FB03C3DB08B1
:10808000092B02F10102F8DC4245134638BF434692
:10809000039307F00203002E40F09580002B00F0C0
:1080A000B780B8F1000F00F0F680F80740F1B0801B
:1080B0000029C0F2FF807A0700F1C88007F00303AF
:1080C000022B00F0A780CDE9006743460A2228462C
:1080D000FFF714FDD5E5D9F800301A1DC9F80020C6
:1080E000196801974346009610222846FFF706FDBF
:1080F000C7E5AB682A68581C2521A860D154D5E98A
:1081000001329A42FFF4BDADD6E6AA6000F803B092
:10811000D5E901329A423FD2296811440132A9E5DA
:108120004146A1EB080311F8017BD7B1AB68D5F844
:1081300000C00A2F03F101020CEB030000F0AF8036
:10814000AA600770D5E901329A42EAD32846039122
:10815000FFF7B8FC0399A1EB080311F8017B002F8E
:10816000E4D19E427FF68DAD202702E0002E3FF441
:1081700088ADA9682A68481CA8605754D5E9012130
:10818000914206F1FF3604D328460393FFF79AFC89
:10819000039BB342EAD174E52846FFF793FCAB6832
:1081A00029685A1C194465E52846FFF78BFCAB6823
:1081B00023E72846FFF786FCAB6814E770471846AC
:1081C000002623468BE5002920DB7A071ED41BB14D
:1081D000B8F1000F3FF46CAFF8073FF569AFBEB1DF
:1081E000039BB342BFF464AF2023AA68501CA8606D
:1081F00028688354D5E90102824206F1FF3640D255
:1082000036B1039AB242F0D1164651E7013EDEE79D
:1082100000264DE7B8F1000F7FF455AF002E6AD06D
:10822000039BB342BFF44FAF3023AA68501CA86031
:1082300028688354D5E90102824206F1FF3618D23C
:10824000002E58D0039AB242EFD13CE7AA68531CE3
:10825000AB602B682B209854D5E901329A42FFF489
:108260002DAF28460491FFF72DFC049926E703461D
:1082700038E52846CDE90413FFF724FCDDE90413B3
:10828000DEE72846CDE90413FFF71CFCDDE9041303
:10829000B6E70122F8E646460AE7474660E6AA60E6
:1082A0000CF803B0D5E901329A4226D22B6898180F
:1082B000013245E7AA68531CAB602B682D20985407
:1082C000D5E901329A42C1F10001FFF4F7AEC8E7E7
:1082D000AA6000F803B0D5E901329A4217D22968A2
:1082E0001144013264E62846FFF7ECFBA9682B68CD
:1082F0004A1C19448AE60026E5E628460391FFF762
:10830000E1FBA8682B680399421C184418E728462B
:10831000FFF7D8FBAB6829685A1C194448E600BF30
:10832000CDCCCCCCB8B90200FFF76CBB2DE9F04145
:10833000058ACE1C043D2E440746B6FBF5F6FFF732
:108340007DFB78B3F6B24FF48073013E0446C580DE
:108350000760838027D08046002509E06379AE421C
:1083600003F101036371C8F80000076080461AD06A
:108370003846FFF763FB01350028EFD16679721E9E
:1083800014D02346013082421B68FBD11F684EB1D6
:10839000002523682146013538461C46FFF776FB49
:1083A000AE42F6D100242046BDE8F0812768EFE711
:1083B00004300121FFF7F6BAF8B501210446043074
:1083C000FFF7FCFAC0B200B1F8BD6679721E12D098
:1083D0002346013082421B68FBD11F68002EF3D078
:1083E000002523682146013538461C46FFF74EFB21
:1083F000AE42F6D1F8BD2768F2E700BF2DE9F84399
:10840000C788467907FB06F6043E02EB030C0446D8
:10841000664503F1040015468846B0FBF7F238BF05
:10842000F51A07FB120012B1013A2468FCD13E1A7A
:10843000AE4228BF2E469DB14FF000090430AD1B5F
:108440002044324608EB090103F046F8AF42B1443C
:1084500024683E464FF0000028BF2E46002DEDD187
:10846000BDE8F8832DE9F843C7884679154607FB30
:1084700006F6043E05EB030C1A1D664504468846C5
:10848000B2FBF7F038BFF51A07FB102110B1013825
:108490002468FCD17E1AAE4228BF2E469DB14FF013
:1084A000000904312144AD1B324608EB090003F0FA
:1084B00013F8AF42B14424683E464FF0000128BF94
:1084C0002E46002DEDD1BDE8F88300BF41DF704797
:1084D000064A074B10B5002414701C60BFF35F8F71
:1084E0000449054800F040F8204610BD1022002045
:1084F00014220020C8B902000822002000B583B071
:1085000002A8002300F8013DFFF7CEF9F1EE103A82
:1085100023F09F03E1EE103ABFF35F8F0A4B402236
:10852000C3F884219DF80700FFF7E4F902F0FEFD8F
:1085300028B920BF40BF20BF03B05DF804FBFFF7A0
:10854000C5FF03B05DF804FB00E100E08268002392
:10855000936082681361826853618268D360826825
:10856000536082681360704701600B6843604A681B
:10857000934204BF00234360704700BF436843B188
:10858000026891680B4443605268934204BF002321
:108590004360704730B4184DA5F59472AB1ADB10E8
:1085A00003EBD3735B1002EBC30152F833309842F4
:1085B00028BF0C4605D311E052F8333098420CD254
:1085C00021468B1ADB1003EBD3735B108A4202EB5C
:1085D000C304F1D3094830BC70470D46984204D912
:1085E00004F10802AA42D9D3F4E76068034B0028DB
:1085F00008BF1846EFE700BF1CBB0200E0B902004D
:1086000030B4904B1B78062B20D08F4B1B68062B69
:1086100000F085808D4AD2F8883043F47003C2F8A8
:108620008830BFF34F8FBFF36F8F4FF01023D3F815
:108630000022002AC0F28681D3F80432002BC0F257
:108640008181834B834A1A6030BC7047824B1B6820
:108650001D07DAD1814B1B6803F0F002302A00F0CD
:108660009E8003F0E003402B00F099807B4B1B6859
:1086700003F0F003302B00F0B980784B1B6803F057
:10868000F002302A56D003F0E003402B52D0734B57
:108690001B6803F0F003302B00F0B6806F4B1B68B3
:1086A00003F0F002302A66D003F0E003402B62D0E2
:1086B0006A4B1B6803F0F003302B00F0B580674B6A
:1086C0001B6803F0F003302B79D0644B1B6803F078
:1086D000F003502B00F0E480604B1B6803F0F002C5
:1086E000302A37D003F0E003402B33D05B4B1B68BC
:1086F00003F0F002302A03D003F0E003402B84D1D2
:108700004FF08043D3F80024D20744BF6FF001023A
:10871000C3F800244C4B1B68062B7FF47BAF504BF7
:108720001B68062B7FF476AF4E4A136843F48063D0
:1087300013606FE74C4B434A1B6812784B49C3F3F5
:108740004233062A0B6048D1434B1B6819077FF45C
:108750005CAF9CE7464A3B4B12681B78454902F0E8
:108760004F02062B0A607FF450AF3B4B1B68190782
:108770007FF44BAFBAE74FF080430022C3F80C21DF
:10878000C3F81021C3F838252E4B1B78062B7FF435
:108790003CAF314B1B681B077FF437AF88E7364B84
:1087A000284A1B6812783549C3F30423062A0B6054
:1087B000EAD1294B1B681C077FF427AF56E7304CE2
:1087C000204A304912783048304B05252560012574
:1087D0000D6000243F2104601960062A7FF415AF64
:1087E0001D4B1B681C077FF410AF6EE7154B284A22
:1087F0001B7828491160062B7FF407AF164B1B68C6
:1088000018077FF402AF38E723490E4BCA681B787C
:1088100022F08072062BCA607FF4F7AE0E4B1B6805
:108820001A077FF4F2AE39E7064B1C4A1B78032186
:10883000062B11607FF4E9AE074B1B681D077FF420
:10884000E4AE3CE7E00F00F03001001000ED00E086
:10885000C41800200090D003E40F00F0E80F00F0EF
:10886000340100103C170040440200103C05004059
:1088700058020010E40E004024030010403501406F
:1088800010560040885600401856004014560040CC
:1088900074C007400DF0ADBAF0ED00E0A005004057
:1088A0004FF08053404AD3F80414C2F82015D3F88F
:1088B0000814C2F82415D3F80C14C2F82815D3F8FC
:1088C0001014C2F82C15D3F81414C2F83015D3F8CC
:1088D0001814C2F83415D3F81C14C2F84015D3F894
:1088E0002014C2F84415D3F82414C2F84815D3F85C
:1088F0002814C2F84C15D3F82C14C2F85015D3F82C
:108900003014C2F85415D3F83414C2F86015D3F8F3
:108910003814C2F86415D3F83C14C2F86815D3F8BB
:1089200040142248C2F86C15D3F844140378C2F8F6
:108930007015062B7FF469AE1D4B1B6818077FF47A
:1089400064AEC9E61B4B0122C3F80425D3F800240A
:10895000002AFBD04FF0102315221649C3F800223D
:10896000D1F80034002BFBD04FF010221521114B11
:10897000C2F80412D3F80024002AFBD000220D49CB
:10898000C3F80425D1F80034002BFBD0BFF34F8F80
:1089900009490A4BCA6802F4E0621343CB60BFF393
:1089A0004F8F00BFFDE700BF00C00040E00F00F0A8
:1089B000E40F00F000E0014000ED00E00400FA05E3
:1089C000054A4FF0A043105CD3F8043523FA00F0B9
:1089D000C04300F00100704708BF0200044B195C5F
:1089E0004FF0A04201238B40C2F80C35704700BF06
:1089F00008BF0200044B195C4FF0A04201238B40DA
:108A0000C2F80835704700BF08BF02004FF0A0430E
:108A100010B44FF480204FF400344FF400214FF491
:108A20008012C3F80845C3F80805C3F80815C3F851
:108A300008255DF8044B70474FF0A04310B44FF485
:108A400080204FF400344FF400214FF48012C3F81B
:108A50000C45C3F80C05C3F80C15C3F80C255DF8DC
:108A6000044B7047074B4FF0A041185CD1F8043518
:108A70000122824022EA03001340C1F80805C1F830
:108A80000C35704708BF02000D2809D00E2809D008
:108A90000F2809D010280CBF03204FF0FF3070477B
:108AA000002070470120704702207047C20730B491
:108AB0001AD54FF0A0430322C3F844274FF40035E2
:108AC000C3F848274FF48024C3F84C274FF4002103
:108AD000C3F850274FF48012C3F80855C3F808456F
:108AE000C3F80815C3F8082583070AD54FF0A0433B
:108AF0000C22C3F83427C3F83827C3F83C27C3F83F
:108B0000402730BC704700BF10B570B101280BD1B1
:108B10000D4C2369A0703BB1D3E9002301202261F1
:108B200098472369002BF7D110BD074CA368012299
:108B30006270002BF8D0D3E900230020A260984790
:108B4000A368002BF7D1EFE71822002070B910B509
:108B5000074CA368012262703BB1D3E900230020D7
:108B6000A2609847A368002BF7D110BD704700BFE3
:108B70001822002030B5012883B01CD015D303285B
:108B800011D100F0C9F802A800231F4C00F8013DE4
:108B9000FEF78AFEE368013BE360E56865B39DF894
:108BA0000700FEF7A7FE03B030BD184B0122C3F843
:108BB000802003B030BD02A80023134C00F8013D13
:108BC000FEF772FE237853B1E3689DF80700013386
:108BD0000122E360A270FEF78DFE03B030BD0C48A9
:108BE0006360A3602361E36000F088F802F09EFAFE
:108BF00030B101232370E7E700F0A0F8A570CEE7BD
:108C000000F08AF8F5E700BF1822002000E100E03C
:108C1000098B020030B585B0047845688DF80040B6
:108C2000D0E90240064A074B039053F821300195E2
:108C30008DF8084052F821106846984705B030BDBD
:108C40002C2200203022002030B585B00478456801
:108C50008DF80040D0E90240064A074B039053F8D4
:108C6000213001958DF8084052F821106846984748
:108C700005B030BD2C22002030220020F0B51A4B68
:108C800006781A4D0C6991F81DE045F82640074614
:108C9000174803F806E040F826200C4694460FCC0F
:108CA00089B06D460FC594E80F0085E80F00049663
:108CB000BEF1000F0BD0BCF1000F0E4A694607F160
:108CC000040008BF002200F0EDFF09B0F0BDBCF1C8
:108CD000000F094A694607F10C0008BF002200F0A6
:108CE000BDFD09B0F0BD00BF1C2500202C220020D6
:108CF00030220020158C0200498C0200054A1379AD
:108D00002BB90121106053711846117170478520ED
:108D1000704700BF34220020074B1A68D20704D4E2
:108D2000C021012283F800131A604FF08043012212
:108D3000C3F81825704700BF00E100E0044B012292
:108D40001A604FF08042D2F81834DB03FBD470472E
:108D50000C00004010B5154B1A6882B07AB10021A2
:108D6000134A19601B68507900934FF0804101232A
:108D7000009CC1F8083310B91168537188470D4B36
:108D80001A6882B100221A601B6801934FF080427A
:108D90000221074B0198C2F808131B68012002B09A
:108DA000BDE81040184702B010BD00BF00010040F0
:108DB000342200200401004030B51D4C94F8585076
:108DC00083B095BB4FF0FF332946042204F15400D1
:108DD000C4E90033C4E90233C4E90433C4E9063307
:108DE000C4E90833C4E90A33C4E90C33C4E90E33D7
:108DF000C4E91033C4E91233236502F078FB0D4A4D
:108E00000D4B0E491D60C02082F806034020106003
:108E10001B68019301984FF000430122284684F813
:108E20005820C1F8043303B030BD082003B030BD72
:108E30003C22002000E100E07C6100400060004036
:108E4000034B93F85800003018BF0120704700BF53
:108E50003C220020F0B56C4B1C1894F93050002DCA
:108E600068DA8E78C6F340069646002E5CD11D6AFD
:108E7000013500F0B58009240C2553F82470013722
:108E80005BD004F1010C53F82C70013700F0B38073
:108E9000A71CAF4246D253F82720013200F0AD8024
:108EA00004F1030CAC453DD253F82C70013700F0AF
:108EB000A28004F1040CAC4534D253F82C70013775
:108EC00000F0998004F1050CAC452BD253F82C70BE
:108ED000013700F0908004F1060CAC4522D253F823
:108EE0002C70013700F0878004F1070CAC4519D2D3
:108EF00053F82C7001377ED004F1080CAC4511D228
:108F000053F82C70013776D004F1090CAC4509D226
:108F100053F82C7001376ED00A34AC4202D2DC6AAE
:108F2000013409D00420F0BD1D68013567D001244B
:108F30000825A2E70820F0BD0B241F1865B243F8EE
:108F400024E087F83050002E51D08A78540714D48A
:108F5000D6073BD44C784FF0A04600F5E072A40051
:108F600046F82240294EC40800F0070C375D012264
:108F700002FA0CF23A4332558A780C7812F0020267
:108F800009D1083D2B44104693F8502042EA84143E
:108F900083F85040F0BDAB0003F1804303F5C043BC
:108FA0000202D3F8101521F4473121F44071C3F8BF
:108FB00010152404D3F8101504F4403402F4F852C8
:108FC00022430A43C3F810250020F0BD820002F1BD
:108FD000A042D2F8004724F00204C2F80047C1E7DB
:108FE000082684F83060C3F820E0354634461C4437
:108FF00084F84800A9E764469FE73C469DE70025C2
:109000001A6084F83050A0E73C2200209022002013
:1090100070B42E4D2E1883B096F93030072B1CDD1E
:109020002B4493F848309B09032B41D0012B14BFEC
:109030004FF440314FF40031800000F1A040D0F8EF
:10904000002722F44032C0F80027D0F800370B4345
:10905000C0F8003703B070BC7047DAB2072AF9D8FD
:10906000980000F1804000F5C04003F14002D0F8C4
:109070001045920092B244F0010402F18042C0F81F
:10908000104502F5C04200200190019C10600029AB
:10909000E0D096F9302055F82220002ADAD00122BB
:1090A0000B4902FA03F3C1F8043303B070BC7047F4
:1090B0004FF0A043D3F81035C34013F0010F0CBF9D
:1090C0004FF400314FF44031B6E700BF3C2200209E
:1090D000006000404FF0A043D3F8103523FA00F0B1
:1090E00000F00100704700BF2DE9F04186B0002379
:1090F000A14A01931668012E00F054811E469F4B31
:109100001A68012A00F05D819D4B1A68012A00F05F
:109110006A819C4B1A68012A00F077819A4B1A6881
:10912000012A00F08481994B1A68012A00F091818C
:10913000974B1A68012A00F09E81964B1A68012A03
:109140000CD0954B1B68012B00F0A58116F0FF0F8A
:1091500015D1002E30DB06B0BDE8F0818F4AD2F881
:1091600004231706EDD500221A601A6804926033B2
:10917000049A1B68012B46F0800600F08C81884F12
:1091800000240125A30003F18043354203F5C043C9
:109190004FEA45050BD0D3F8100557F82420D3F833
:1091A0001015C0F30420C1F3014102B1904701340E
:1091B000082CE7D1002ECEDA00224FF0FF33CDE9A4
:1091C0000223774C012602AF94F950305D1C2CD05D
:1091D000DBB223F0C00006AA4FEAD00C02EB0C0E63
:1091E00003F007021EF80C1C06FA02F211421CD012
:1091F0002518990995F9303054F82330002B00F0E8
:109200009881032900F098814FEA800C0CF1A04C62
:109210001EF8145CDCF800E71540CEF3014E40F078
:109220005C81BEF1030F00F0DE81002594F951301E
:10923000581C2DD0DBB223F0C00006AA4FEAD0089C
:1092400002EB080E03F007011EF80C2C06FA01FCD5
:1092500012EA0C0F1CD02218990992F9303054F8F8
:109260002330002B00F05B81032900F05B8182003A
:1092700002F1A0421EF8148CD2F800E718EA0C0F95
:10928000CEF3014E40F03681BEF1030F00F0A6810F
:1092900094F95230591C2DD0DBB223F0C00006AA3D
:1092A0004FEAD00802EB080E03F007011EF80C2C61
:1092B00006FA01FC12EA0C0F1CD02218990992F947
:1092C000303054F82330002B00F03C81032900F0AB
:1092D0003C81820002F1A0421EF8148CD2F800E713
:1092E00018EA0C0FCEF3014E40F0E380BEF1030FFD
:1092F00000F06E8194F953305A1C2DD0DBB223F06C
:10930000C00006AA4FEAD00802EB080E03F00701DE
:109310001EF80C2C06FA01FC12EA0C0F1CD02218C5
:10932000990992F9303054F82330002B00F0ED8089
:10933000032900F0ED80820002F1A0421EF8148C97
:10934000D2F800E718EA0C0FCEF3014E40F0BC80D3
:10935000BEF1030F00F00081002D3FF4FCAE4FF092
:10936000A043019AD3F8103593423FF4F4AE029A29
:109370000193039228E700BF0061004004610040B0
:10938000086100400C610040106100401461004021
:10939000186100401C6100407C610040006000409A
:1093A0003C2200209A49D1F8041311F0010170D039
:1093B000136013680493049B964B1A68012A7FF488
:1093C000A3AE934AD2F8042397077FF59DAE0022FF
:1093D0001A601B680493049B8F4B1A68012A46F09D
:1093E00002067FF496AE8A4AD2F8042355077FF529
:1093F00090AE00221A601B680493049B874B1A6886
:10940000012A46F004067FF489AE814AD2F804238B
:1094100014077FF583AE00221A601B680493049B37
:109420007F4B1A68012A46F008067FF47CAE784A22
:10943000D2F80423D0067FF576AE00221A601B68AE
:109440000493049B774B1A68012A46F010067FF4B8
:109450006FAE6F4AD2F8042391067FF569AE002201
:109460001A601B680493049B6F4B1A68012A46F02C
:1094700020067FF462AE664AD2F8042352067FF5D6
:109480005CAE00221A601B680493049B46F0400601
:1094900053E60E4633E6654B00221A601B680593BF
:1094A0004FF0A043059AD3F81035019346F00046DB
:1094B0004CE6BEF1020F7FF41DAF032963D0002BF1
:1094C0003FF418AF984715E7BEF1020F7FF444AFA1
:1094D000032969D0002B54D13EE7BEF1020F7FF47F
:1094E000A4AE032900F091800025002B3FF49EAE2E
:1094F00098479BE6BEF1020F7FF4CAAE032956D00F
:10950000002B3FF4C5AE9847C2E603297FF424AF91
:1095100017F8082042EA0C0207F808200BE7032995
:109520007FF4B6AE17F8082042EA0C0207F80820CC
:109530009DE603297FF479AE17F80C50154307F820
:109540000C5061E603297FF4D5AE17F8082042EAF3
:109550000C0207F80820BCE60329BBD14FF4003EFB
:10956000D2F800C72CF4403CC2F800C7D2F800C7BC
:1095700001354CEA0E0CEDB2C2F800C7002B3FF4E7
:10958000EEAE9847E8E64FF4403ED2F800C72CF420
:10959000403CC2F800C7D2F800C701354CEA0E0CB7
:1095A000EDB2C2F800C78AE74FF4403ED8E74FF467
:1095B000403ED2F800C72CF4403CC2F800C7D2F8B5
:1095C00000C701354CEA0E0CEDB2C2F800C797E7B0
:1095D00003297FF474AF4FF4003ED6E703298FD1FF
:1095E0004FF4003EE5E703297FF47FAF4FF40035E9
:1095F000DCF8002722F44032CCF80027DCF8002702
:109600002A43CCF8002701256FE74FF44035EFE7F8
:109610000060004004610040086100400C610040AF
:109620001061004014610040186100407C610040FE
:10963000014B1B68184700BF98220020104B98422E
:1096400001D00020704730B583B002A8002300F895
:10965000013D0D46FEF728F90A4B1C7934B19DF8FF
:109660000700FEF747F9112003B030BD01229DF835
:1096700007001D601A71FEF73DF92046F4E700BFB0
:109680000020004098220020034B984203D1034B56
:1096900000221A601A7170470020004098220020B2
:1096A00030B56C4AD2F8043399058BB066D5D2F840
:1096B0002431002B62D00023C2F82431D2F82431A7
:1096C00003934FF40171644B0398C2F8081393F8A5
:1096D000291009B9012151605E4902228DF8182034
:1096E000D1F88024C1F880249869D96809920022B1
:1096F000CDE90710C3E90622D3E9001406A8A04764
:10970000544AD2F81C31BBB1534B186A596988428C
:1097100069D350480022C0F81C21D0F81C010190E8
:10972000019849B198688DF8182008915A610790FE
:10973000D3E9001206A89047464AD2F84431DBB17B
:109740000021454BC2F84411D2F8440193F8291086
:109750000090009809B1012111609A6962B100225C
:10976000586AD9689A610122CDE907108DF818204E
:1097700006A8D3E9001290470BB030BD354AD2F8A5
:1097800004335B07BCD5D2F80831002BB8D0324B7C
:10979000996900293CD00021C2F80811D2F80811BB
:1097A00004910499D868596AD2F8182542545A6A23
:1097B000996901325A625A6A8A42A1D1DA691968F2
:1097C000002A2ED0D8685D6A1C699A610790002231
:1097D0000120DC60DA615A628DF8180008955B6838
:1097E00006A898478CE793F8280000F0FF040028AB
:1097F0008FD1C2F81C41D2F81C11029102999C68C9
:10980000186A196A205C01311962C2F81C0593E7D5
:10981000C2F80811D2F8080105900598D2F8182569
:10982000C9E793F8292012B90A4A01205060094A71
:109830004FF40170C2F80803586ADA6808900024EF
:10984000012007928DF818005A689C6106A890477D
:1098500056E700BF00200040A02200202DE9F04183
:109860005E4F06792C2505FB067582B095F82A30E7
:10987000002B40F087800D46044659490068904609
:10988000FFF7DCFE002879D12B68591C0CD001228F
:109890004FF0A04102FA03F3C1F808352B6803F535
:1098A000E073032241F823206B685A1C06D003F5AD
:1098B000E0734FF0A042002142F823102368AA6908
:1098C000C3F82425297D6B7D22680B43C2F86C35D3
:1098D000D5E900122368C3F81425C3F80C152B7DB5
:1098E000012B53D02C2303FB06F3FA18C2F8048093
:1098F0002A69FA50B8F1000F2DD022682B7F394D1C
:109900000021C2F81C11D2F81C2100922268DDF857
:1099100000C0C2F84411D2F84411226801910199A3
:10992000C2F804532168090B4AB25B01002ADBB27A
:109930004EDB02F1604202F5614282F80033236897
:10994000294D1B0B5AB2520903F01F03012101FAE2
:1099500003F345F822302C23246803FB067300220E
:1099600004250121C4F8005583F82A10C3E9062212
:1099700083F829205A6102B0BDE8F081112002B0BD
:10998000BDE8F081082002B0BDE8F081AB68591C49
:1099900006D003F5E0734FF0A042002142F82310F7
:1099A000EB685A1C0DD001224FF0A04102FA03F3DC
:1099B000C1F80835EB6803F5E073032241F8232072
:1099C000EB682268A968C2F80835C2F8101589E763
:1099D000064A01F00F010A441376B0E7A0220020E6
:1099E000A19602008000020000E100E0FCEC00E033
:1099F000F8B52F4D047902682C2303FB0453002192
:109A00005B68C2F8001583B103682A4AC3F80823CB
:109A10000368294E1B0B5AB25209203203F01F0370
:109A2000012101FA03F346F8223003684FF0FF32B8
:109A3000D3F80CC5D3F81475D3F80815D3F810650E
:109A4000C3F81425C3F80C2503689445C3F808250A
:109A5000C3F8102506D00CF5E07C4FF0A04302229D
:109A600043F82C207B1C06D007F5E0774FF0A0438D
:109A7000022243F82720721C06D006F5E0764FF04C
:109A8000A043022243F826204B1C06D001F5E071CA
:109A90004FF0A043022243F821200068FFF7F4FDB5
:109AA0002C2303FB0454002384F82A306360F8BDA0
:109AB000A02200208402020000E100E0F0B5314E57
:109AC00005792C2303FB056385B05C69002C53D119
:109AD0001C62996083F828405A610268C2F81C41F0
:109AE000D2F81C11026802910121029F9160026864
:109AF000D3F808C0C2F81C41D2F81C110191019999
:109B0000D3F820E0196A5F681CF80EE00131196291
:109B1000C2F81CE517B1204605B0F0BD1A6A5C69B1
:109B20000168944203D819E093F828203ABBD1F891
:109B30001C21002AF8D0C1F81C71D1F81C21039215
:109B4000039AD3F820E01A6A1CF80EE001321A6278
:109B5000C1F81CE51A6AA242E9D30168D1F81C31A8
:109B6000002BFBD00123CB6000202C2303FB0565D9
:109B700000236B6105B0F0BD112005B0F0BD0F20D2
:109B8000F3E700BFA0220020F0B5444BD3F8242116
:109B900089B0002A52D00021C3F82411D3F824211F
:109BA000029202228DF81020029AD3F880043C4AD7
:109BB000C3F880040790D3F83C05D3680690C2E947
:109BC000061105931168536804A89847334BD3F8DE
:109BD0004421BAB10021324AC3F84411D3F84441B8
:109BE00090690194019C68B1D3F83C35D068069324
:109BF0000123C2E9061105908DF8103004A8D2E9BE
:109C000000139847254BD3F82021AAB10021C3F8AF
:109C10002011D3F82001224A00900098506958B1D1
:109C2000D3F84C05936806908DF810105161059398
:109C300004A8D2E90013984709B0F0BDD3F8101179
:109C40000029C3D0C3F81021D3F810111448039190
:109C500003998169D3F83C458C42B7D1C569C7687F
:109C6000D0E900168DB1D3F800C285612CF0200533
:109C7000C261C3F800520369C3600122CDE90574D3
:109C80008DF8102004A8B047A0E701238561CDE935
:109C900005748DF8103004A8B04797E70020004005
:109CA000CC2200202DE9F0430779674E4FEAC70820
:109CB00008EB070306EB830385B093F82030002BF5
:109CC00040F096800D460446604900689146FFF7D3
:109CD000B5FC002840F088802B68591C0CD001226C
:109CE0004FF0A04102FA03F3C1F808352B6803F5E1
:109CF000E073032241F823206B685A1C06D003F559
:109D0000E0734FF0A042002142F823102368AA69B3
:109D1000C3F82425297D6A7D23680A43C3F86C258E
:109D2000D5E900312268C2F80C35C2F814152B7D34
:109D3000012B61D008EB07029200B318C3F804901E
:109D40002B69B350B9F1000F3DD021682B7F404DF6
:109D50000022C1F81021D1F8101100912168DDF81E
:109D600000C0C1F82021D1F8201101912168DDF84F
:109D700004C0C1F82421D1F8241102912168DDF832
:109D800008C0C1F84421D1F8441122680391039915
:109D9000C2F804532168090B4AB25B01002ADBB206
:109DA0004CDB02F1604202F5614282F80033236825
:109DB000284D1B0B5AB2520903F01F03012101FA6F
:109DC00003F345F822304744226806EB8706002358
:109DD00001240821C2F8001586F82040C6E90633A0
:109DE000736105B0BDE8F083112005B0BDE8F083D4
:109DF000082005B0BDE8F083AB68591C06D003F518
:109E0000E0734FF0A042002142F82310EB685A1C87
:109E10000DD001224FF0A04102FA03F3C1F808353A
:109E2000EB6803F5E073032241F82320EB68226816
:109E3000A968C2F80835C2F810157BE7064A01F098
:109E40000F010A441376B2E7CC220020899B02005E
:109E50001003020000E100E0FCEC00E0F8B5067938
:109E60002F4C0268F500AB1904EB830300215B68FB
:109E7000C2F8001583B103682A4AC3F808230368AF
:109E8000294F1B0B5AB25209203203F01F03012144
:109E900001FA03F347F8223003684FF0FF32D3F89A
:109EA0000CE5D3F814C5D3F80815D3F81075C3F82A
:109EB0000C25C3F8142503689645C3F80825C3F894
:109EC000102506D00EF5E07E4FF0A043022243F8A5
:109ED0002E20BCF1FF3F06D00CF5E07C4FF0A043F4
:109EE000022243F82C207A1C06D007F5E0774FF0C9
:109EF000A043022243F827204B1C06D001F5E07155
:109F00004FF0A043022243F82120354404EB85049E
:109F10000068FFF7B9FB002384F820306360F8BDC8
:109F2000CC2200201003020000E100E001F06043B9
:109F3000B3F1005F2CD1F0B40579244EEF007C1909
:109F400006EB840482B0636923BB6261A16002688E
:109F5000C2F82031D2F820C10268CDF804C0DDF883
:109F600004C0C2F85831D2F8582100920268DDF8D6
:109F700000C0D4F814C0C2F84415C2F848C502683D
:109F80000121916062684AB1184602B0F0BC704786
:109F900010207047112002B0F0BC7047036800E049
:109FA0008AB9D3F82011D3F858210029F8D0002A13
:109FB00014BF0F2000207B1906EB830300225A6197
:109FC00002B0F0BC70470F20F5E700BFCC220020A4
:109FD0000220FEF747BD00BF2DE9F0470D460646BB
:109FE000FEF752FD03281ED8012D04461DD00ED3C6
:109FF000022D18D11B4B00EB40041C44657895B131
:10A00000194B1B687BB12846BDE8F0471847174835
:10A01000FDF710FC134B164A04EB44010B44125D90
:10A020009D78AA42EBD0BDE8F0870E4F4FEA40087A
:10A0300008EB0003FA18FD5C53782BB9A0444744A1
:10A040000B4BBA781A55DAE7DFF8289007484A46EA
:10A050004FF40041FDF798FB0028EFD189F800602C
:10A06000ECE700BF542300206823002014230020C5
:10A0700070230020F022002010B50078FEF704FDC8
:10A0800003280BD8064B00EB40001844407828B159
:10A09000044B1B6813B1BDE81040184710BD00BF4A
:10A0A0005423002068230020B44B1B68DB0700D436
:10A0B000704770B5B24DB34E2B7834786BB1B24B5C
:10A0C0001B7800202870002B4BD0FEF793FC01205A
:10A0D000FEF790FC0320FEF78DFC172C40D8DFE83C
:10A0E00014F0B600F400F400DC000801CA0013010B
:10A0F000EE005000430050004300610018001800BB
:10A10000180018001800660077008B009F005D00A3
:10A110005D009E48FDF78EFBD4F11104054600F06A
:10A120000081002840F0FD80012C13D0C82303FBE0
:10A1300004F44FF4FA704FF400430021C3FB040110
:10A140004FF47A72002301F0F1F92A4601468F4854
:10A15000FDF71AFB0220FEF741FC8B4B01221A701F
:10A1600070BDFEF753FCB8E7012318462B70FEF7CD
:10A1700079FC00224FF480418548BDE87040FDF72E
:10A1800003BB012318462B70FEF76CFC002240F63F
:10A19000CD417F48BDE87040FDF7F6BAFEF74CFCB4
:10A1A000347070BDFEF748FC0C23337070BD764BE5
:10A1B0001B78002B00F0BF800020FEF71BFC012065
:10A1C000FEF718FC0320FEF715FC1223337070BD58
:10A1D0006D4B1B78002B00F0B1800020FEF70AFCCD
:10A1E0000120FEF707FC0320FEF704FC0020FEF729
:10A1F000F5FB1323337070BD634B1B78002B00F00D
:10A20000AD800020FEF7F6FB0120FEF7F3FB0320F4
:10A21000FEF7F0FB0120FEF7E1FB1423337070BD65
:10A22000594B1B78002B00F083800020FEF7E2FBE7
:10A230000120FEF7DFFB0320FEF7DCFB0020FEF72A
:10A24000CDFB0120FEF7CAFB1523337070BD4E4BCA
:10A250001B78002B00F08A800020FEF7CBFB01204A
:10A26000FEF7C8FB0320FEF7C5FB4948FDF7E2FAFD
:10A270000023337070BD0020FEF7A2FB002860D0E1
:10A280000020FEF7B7FB05233370002241F69A1138
:10A290003F48BDE87040FDF777BA0020FEF790FB1D
:10A2A00000285ED00020FEF7A5FB46F2666103237E
:10A2B000337000223648BDE87040FDF765BA0020D3
:10A2C000FEF78CFB0723337070BD0020FEF778FB90
:10A2D000D0B30020FEF78EFB022C4EF2666118BF51
:10A2E0004FF40031347000222948BDE87040FDF77A
:10A2F0004BBA0020FEF764FBD8B30020FEF77AFBD0
:10A300004FF400310423D3E70020FEF7ABFB062314
:10A310003370002240F6CD411D48BDE87040FDF786
:10A3200033BA0220FEF766FB174B00221A7070BD8D
:10A33000FEF76CFB82E7FEF769FB46E7FEF766FB7C
:10A3400054E7FEF74BFB9EE7FEF748FB43F2333141
:10A3500041F69A13022C08BF1946C3E7FEF756FBD5
:10A3600058E7FEF73BFB41F69A11A0E7FEF74EFBDC
:10A370007BE7FEF733FB43F23331C3E76023002072
:10A38000642300206C230020F1220020F42200200E
:10A390003423002038B5C54B1C6814F0010401D1EA
:10A3A000204638BDC24C2378054663B1C14B1B78AB
:10A3B0000020207023B3FEF71DFB0120FEF71AFBDF
:10A3C0000320FEF717FB172D00F26D81DFE815F073
:10A3D000C300EC00EC001001D9002301020136019A
:10A3E00028001B0028001B006A007100710071002A
:10A3F000710071009A00AD0035004B0064006400EC
:10A40000FEF704FBDFE7012318462370FEF72AFB63
:10A4100000224FF48041A848BDE83840FDF7B4B9A8
:10A42000012318462370FEF71DFB002240F6CD41A4
:10A43000A148BDE83840FDF7A7B99E4B1B78002B1B
:10A4400000F016810020FEF7D5FA0120FEF7D2FABF
:10A450000320FEF7CFFA0120FEF7C0FA974B142233
:10A460001A7000249CE7934B1B78002B00F00381AB
:10A470000020FEF7BFFA0120FEF7BCFA0320FEF72A
:10A48000B9FA0020FEF7AAFA0120FEF7A7FA8B4BD3
:10A4900015221A70002483E7FEF7CEFA874B0024BA
:10A4A0001D707DE7FEF7C8FA844B0C221A70002459
:10A4B00076E78348FDF7BEF90446D5F1110000F0B8
:10A4C000C580002C40F0C280012814D0C82505FBAF
:10A4D00000F54FF400434FF4FA700021C3FB05016F
:10A4E0004FF47A72002301F021F8224601467448A5
:10A4F000FDF74AF904460220FEF770FA6D4B01227F
:10A500001A704DE76B4B1B78002B00F0AE800020DB
:10A51000FEF770FA0120FEF76DFA0320FEF76AFAE3
:10A52000664B12221A7000243AE7624B1B78002B0C
:10A5300000F093800020FEF75DFA0120FEF75AFA42
:10A540000320FEF757FA0020FEF748FA5B4B132270
:10A550001A70002424E7574B1B78002B00F08E80E4
:10A560000020FEF747FA0120FEF744FA0320FEF729
:10A5700041FA5148FDF75EF9504B002204461A702B
:10A580000EE70020FEF71CFA002869D00020FEF735
:10A5900031FA4FF40031494B474804241C70002223
:10A5A000BDE83840FDF7F0B80020FEF709FA0028B2
:10A5B0006CD00020FEF71EFA022D4EF2666118BF25
:10A5C0004FF400313D4B3C481D700022BDE838403F
:10A5D000FDF7DAB80020FEF745FA384B3648062476
:10A5E0001C70002240F6CD41BDE83840FDF7CCB8E4
:10A5F0000020FEF7E5F9002843D00020FEF7FAF925
:10A6000046F266612D4B2C4803241C700022BDE8E5
:10A610003840FDF7B9B80020FEF7D2F900283FD046
:10A620000020FEF7E7F9254B234805241C70002283
:10A6300041F69A11BDE83840FDF7A6B80020FEF7B4
:10A64000CDF91E4B07221A700024A9E60220FEF75E
:10A65000D1F9184B00221A70A2E6FEF7D7F972E77B
:10A66000FEF7BCF943F2333195E7FEF7CFF957E730
:10A67000FEF7CCF9EFE6FEF7C9F902E7FEF7C6F9F7
:10A6800077E7FEF7ABF941F69A11BBE7FEF7A6F9BB
:10A6900043F2333141F69A13022D08BF194691E770
:10A6A000FEF79CF9BFE700247AE600BF6023002094
:10A6B00064230020F1220020342300206C2300209A
:10A6C000F422002038B5244B244A19608307106017
:10A6D00000F0010503D4CDB92C46204638BD204BEF
:10A6E00020480E240F2210211C701124DA70997159
:10A6F0005C7240F266620421FCF710FD0446B8B1BA
:10A7000015B10120FEF7D2F9204638BD0120FEF731
:10A71000CDF9154A15480021FDF724F80446002814
:10A72000F2D1134A13480121BDE83840FDF71AB8A9
:10A73000FCF74CFD04460028E2D101460E4A0F48C2
:10A74000FDF710F80446002DDED00120FEF7AEF92B
:10A75000002CD9D1DDE700BF682300206023002052
:10A760005423002038BF0200A9A0020060BF0200ED
:10A77000D19F020058BF020079A002005CBF020016
:10A78000032811D8012A0BD0012919D00ED3022990
:10A790000AD10E4B00EB4000034400205A70704772
:10A7A00001290AD00022EFE707207047074B00EB92
:10A7B0004000034400209A70704700F10E02D2B2AC
:10A7C00000EB400301490020CA5470475423002085
:10A7D00010B50388102B07D0112B04D1254B186816
:10A7E0000138186030B110BD224C216881B10131AF
:10A7F000216010BD01220221FFF7C2FF38B30728F4
:10A8000025D01D4B1B68002BEDD0BDE8104018472C
:10A8100001220846FFF7B4FF38B1072805D0164BD0
:10A820001B6803B198472168E1E707220221012054
:10A83000FFF7A6FF08B10728F1D10422022100206A
:10A84000FFF79EFF0028EED00728E8D1EBE70722AC
:10A8500002210120FFF794FF08B10728D1D1002180
:10A8600008460A22FFF78CFF0028BCD00728C8D171
:10A8700010BD00BF782300207423002072DF7047D2
:10A8800073DF704778DF70477ADF70477CDF70478F
:10A89000F0B5C7B013AEC9253C22002104A81D4C59
:10A8A00000F025FE2A4630461B4900F015FE012126
:10A8B000592201AB8DF810100396ADF8042006263E
:10A8C0001822002107272046ADF808500D938DF877
:10A8D00013608DF8117000F00AFE104A0023A026C4
:10A8E0000A2504A852F8041BA66025706360A381A2
:10A8F000A382A37500F0FEF848B9064A0749084844
:10A90000FFF7BCFF08B1FCF777FC47B0F0BDFCF7E0
:10A9100073FCF2E77C23002064BF0200C81800200B
:10A92000D818002000B54FF4004185B00020FBF797
:10A9300055FE08B1FCF760FCFBF7D6FDFCF7BEFE48
:10A9400008B1FCF759FC00210120FFF7BBFE08B15C
:10A95000FCF752FCFDF7BCFD08B1FCF74DFC00F024
:10A960005BFB08B1FCF748FC04AC002344F8083D4D
:10A970000120214600F028FC08B1FCF73DFC2046F0
:10A9800000F0DCFC08B1FCF737FC04AD11232248D1
:10A9900005F80C3D00F0B3FD1F4982B22846FFF7D1
:10A9A00075FF08B1FCF728FC40F2C230FFF76AFFE0
:10A9B00008B1FCF721FC08220021204600F097FD99
:10A9C000164A4FF0C8732046CDE90223FFF75CFF1B
:10A9D00008B1FCF711FCFFF75BFF114B114812495E
:10A9E000C01AC008000440F00300FBF757FE0F4BED
:10A9F00001211878FFF744FF08B1FCF7FDFB0220A6
:10AA0000FFF7C8FC08B1FCF7F7FBFCF7F7F80028E4
:10AA1000FBD1FDF773FDF8E730C002005000A00045
:10AA200070C5020098C5020038C00200D818002086
:10AA30006DDF704779DF70477DDF704764DF7047F7
:10AA40002DE9F04F83B004880C9EBDF83490B6F821
:10AA500000A0002C39D09846002317468B460546A7
:10AA60001C4603E02A880134A24224DD6A6852F8B9
:10AA70002400019000220DF1030101A8FFF7DEFF81
:10AA800020BB9DF80320BA42ECD13288B91803B339
:10AA900089452BDB42440DF1030101A80123FFF797
:10AAA000CDFF98B931889DF803200A4432802A8866
:10AAB0000134A242DADC43B13388013BA3EB0A0341
:10AAC0009BB2FF2B12D808F80A30002003B0BDE873
:10AAD000F08F02310132894592B207DB328008F8EB
:10AAE00002B03288013292B23280D3E70C2003B038
:10AAF000BDE8F08F2DE9F04700231788138090F808
:10AB00002D3086B0144605460E46002B40F0FB80E3
:10AB1000AA78002A40F0FD80EA78A2B1D91CB94297
:10AB200000F2F3800221F154238801339BB201210A
:10AB30002380F15423880B449BB22380F254238852
:10AB40000B449BB223806A68AAB1D91CB94200F2B7
:10AB5000DC80022192F90020F154238801339BB25A
:10AB60000A212380F154238801339BB22380F254BD
:10AB70002388013323802B89002B40F01B812B8AF3
:10AB8000002B40F02F812B8B002B40F043812B6A50
:10AB9000002B44D02288911DB94200F2B68019885A
:10ABA000052940F203816FF4486801EB080080B288
:10ABB0004FF27D3C604540F2F9805888052840F20C
:10ABC000F5806FF4486E86441FFA8EFEE64540F22B
:10ABD000ED804FF6FF7C614504D0604502D0814294
:10ABE00000F2E4800521B1542288013292B2122190
:10ABF0002280B1542288013292B222801988B15445
:10AC00003244090A51702288023292B222805B8853
:10AC1000B35432441B0A53702388023323806B6A77
:10AC2000002B2FD09988B4F800C0881C0CF10202C8
:10AC30000244BA4269D8FE2867D8033106F80C10DE
:10AC40002288013292B2FF212280B154228801323F
:10AC500092B222801988B1543244090A5170208876
:10AC6000023080B220809A8862B1996803930029EB
:10AC700000F09C80304400F02FFC039B9A882388CE
:10AC80001344238095F82C30002B40F08A802878DC
:10AC900000283BD02B88012B00F08880228802F10D
:10ACA000020CBC4531D8012804D16B78023313441F
:10ACB0009F422AD3BB1E9B1A06A99BB221F8083DCE
:10ACC00006EB0C00FFF7B8FE00BB2978BDF810209A
:10ACD000022900F0048168789042C0F0FB80934222
:10ACE000C0F0F8800921FE2A0FD82388501CF054A8
:10ACF000238801339BB22380F154238801331A4403
:10AD00002280002002E0082F23D80C2006B0BDE8E6
:10AD1000F0870433BB42F8D804A8FFF78BFE002865
:10AD2000F4D12388BDF810200321F1542388013386
:10AD30009BB219212380F154238801339BB2F1186F
:10AD40002380F254120A4A70238802339BB2238074
:10AD5000E2E604A8FFF76CFE0028D7D1138808228A
:10AD6000CA54238801339BB21B222380CA542088F3
:10AD7000013080B22080062208440DF1110100F05C
:10AD8000ABFB23889DF8102006339BB212F0FE0225
:10AD900018BF01222380F254238801339BB2238001
:10ADA000B6E6D5F82880B8F1000F4CD1072006B0E0
:10ADB000BDE8F08705F108080222CDE900474046CA
:10ADC00011463346FFF73CFE00289FD1CDE90047EE
:10ADD0004046334610220621FFF732FE00283FF49A
:10ADE000CEAE93E705F11008CDE900474046334663
:10ADF00002220321FFF724FE002887D1CDE9004776
:10AE00004046334610220721FFF71AFE00283FF480
:10AE1000BAAE7BE705F11808CDE900474046334656
:10AE200002221421FFF70CFE00287FF46FAFCDE95A
:10AE300000474046334610221521FFF701FE002847
:10AE40003FF4A5AE62E7B8F804200232FE2A3FF6CE
:10AE50005CAF23884FF000094FF0160A0132F2541C
:10AE6000238801339BB2238006F803A02388013393
:10AE70009BB22380B8F80020F2543344120A5A706F
:10AE8000238802339BB22380B8F80410F0180A46D6
:10AE900061B1D8F808301946002B87D000F01CFBB0
:10AEA000B8F80420238813449BB2238009F10109D8
:10AEB00095F82C205FFA89F94A4509EB49087FF695
:10AEC000E6AEAA6A02EB8808B8F804200232FE2A2D
:10AED000C4D91AE7012906D01A46082103E793428C
:10AEE000BFF400AFF8E78342F6D302460821FAE642
:10AEF0002DE9F0470388B0F80490112B98B059D091
:10AF00001A2B804647D0102B02D018B0BDE8F0872E
:10AF1000394A936818A8DB4340F8603D5168FCF754
:10AF200035FD009B0193019B63B300273C462146FE
:10AF300001A8FCF70BFD28B118AB03EB4703013761
:10AF400023F8284C0134142CF1D10D970DAE0FCEFF
:10AF500002AC0FC40FCE0FC496E8070084E80700C8
:10AF600087B10DF10A0A254E0AEB47073AF8025F4E
:10AF7000234C204629460434FCF7DEFCA642F8D1D7
:10AF8000BA45F3D1B9F1130F1BD90420FCF734F9FA
:10AF900018B0BDE8F087047A1A482409012C494604
:10AFA00020D9FCF7BFFC022C494617481ED0FCF7FD
:10AFB000B9FCAAE749461548FCF7BEFC18B0BDE845
:10AFC000F08749461148FCF7ADFC49460C48FCF7B0
:10AFD000A9FC98F80F30012B97D049460C48FCF794
:10AFE000A1FC92E7FCF7A8FC07484946FCF7A4FC43
:10AFF00018B0BDE8F08700BF942400200C25002085
:10B0000098240020A4240020A82400209C240020B0
:10B01000A024002010DF704770B53B4D2B7884B022
:10B02000002B63D1394E3A49012302A83370FDF752
:10B030009BFA039B002B4FD1364902A8FDF794FAE7
:10B04000039B4BB1D3E900210020904702A8FDF7F4
:10B0500095FA039B002BF5D12F4A002312688DF837
:10B06000083002A80192FCF71FFC2C4901A8FFF749
:10B07000D1FFB0FA80F304465B099DF808002B70FD
:10B08000FCF738FC002C2ED1254B26491C7034705F
:10B0900091F81623EC2352091341DB072FD5224BDD
:10B0A0009A683ABB4FF480030B601A4902A8FDF777
:10B0B0005BFA039BBBB1D3E900210120904702A8B2
:10B0C000FDF75CFA039B002BF5D10CE002A8FDF71D
:10B0D00055FA039B002BAFD0D3E900210020904705
:10B0E0000028F3D10446204604B070BD0824204651
:10B0F00004B070BD1A6842F480021A60D5E742F2CB
:10B100000200FCF779F8D0E70D2500200C2500207F
:10B1100084C102009CC1020080C1020019720200B9
:10B120000E25002000E100E010250020014B1878DA
:10B13000704700BF0D25002000B583B06846084960
:10B14000FDF712FA019B43B1D3E90020904768460E
:10B15000FDF714FA019B002BF6D103B05DF804FB58
:10B1600090C1020060DF704769DF704761DF7047A0
:10B17000134B1B781BB330B5124D91B034240DF135
:10B18000020103A8ADF80240FFF7F0FF88B9294695
:10B1900001A8FDF7E9F9029B002BF0D0D3E90021CB
:10B1A00003A8904701A8FDF7E9F9029B002BF5D110
:10B1B000E5E7052801D0FCF71FF811B030BD704756
:10B1C0000F250020E8C30200002900F0A48070B51C
:10B1D000524B0B6084B00C4605460C22002101A89E
:10B1E00000F085F90126062301A922688DF8045094
:10B1F00020208DF80660ADF80830FFF7B5FF002875
:10B200007BD10C22002101A800F071F900232268F3
:10B210008DF8053001A940208DF806308DF80730F3
:10B22000FFF7A2FF00285AD10C22002101A800F04C
:10B230005EF9002322688DF8043001A90120FFF790
:10B2400093FF00283DD10C22002101A800F04FF906
:10B25000F8232268019301A9A120FFF785FF10BB05
:10B260000C22002101A800F042F99DF80430226868
:10B270006FF3000301A9A0208DF80430FFF774FFDD
:10B2800008B904B070BDFDF785F9254A254B26495C
:10B290009B1ADB081B04024643F00100FBF7ACFBE2
:10B2A000002004B070BDFDF775F91D4A1D4B1F4904
:10B2B0009B1ADB081B04024643F00100FBF79CFBD2
:10B2C000CEE7FDF767F9164A164B19499B1ADB08BA
:10B2D0001B04024643F00100FBF78EFBB3E7FDF7CA
:10B2E00059F90F4A0F4B13499B1ADB081B040246FE
:10B2F00043F00100FBF780FB96E7FDF74BF9084AA6
:10B30000084B0D499B1ADB081B04024643EA060062
:10B31000FBF772FB75E70E20704700BFA8180020EE
:10B3200070C50200B0C50200E4C2020090C2020073
:10B3300044C20200F8C10200B0C10200F8B50646DE
:10B340000768FFF70FFF3368BB42054605D825BBEA
:10B350001A4B01221A702846F8BD194B194C1A498C
:10B36000E41AE408240444F002042046FBF796F9AA
:10B370003A46204633681549FBF7BEFB4FF0805331
:10B380003268D3F80C3112499B0203F10053204676
:10B390009A1AFBF731FB002DDAD02846FDF7FAF8B0
:10B3A000074A084B0B499B1ADB081B04024643F073
:10B3B0000100FBF721FB2846F8BD00BF0F25002048
:10B3C00070C50200B0C5020038C3020068C30200A5
:10B3D0009CC30200C8C302004BDF704710B5114C7C
:10B3E00084B001A8FFF7F8FFA8B9214602A8FDF72D
:10B3F000BBF8039B002BF4D0D3E9002101989047C0
:10B4000002A8FDF7BBF8039B002BF5D101A8FFF7BD
:10B41000E3FF0028E9D0052801D0FBF7EDFE04B0DA
:10B4200010BD00BF00C4020008B5074B044613B1AD
:10B430000021AFF30080054B1868836A03B1984779
:10B44000204600F071F800BF0000000018C40200A0
:10B4500070B50D4E0D4CA41BA4100025A54209D1BA
:10B460000B4E0C4C00F0E2F9A41BA4100025A542E1
:10B4700005D170BD56F8253098470135EEE756F8EE
:10B48000253098470135F2E7AC1A0020AC1A0020AD
:10B49000AC1A0020B01A0020044B054A1B681B6A36
:10B4A000002B08BF1346D3F8EC007047DC180020CF
:10B4B0004019002082B001B901A942B14BB1137803
:10B4C0000B601278101C18BF012002B070471046A4
:10B4D000FBE76FF00100F8E710B5431E0A44914204
:10B4E00000D110BD11F8014B03F8014FF7E70244FA
:10B4F0000346934200D1704703F8011BF9E7034666
:10B5000013F8012B002AFBD1181A0138704749B1F2
:10B51000FF2A85BF8A2303600A704FF0FF3098BF6F
:10B520000120704708467047FEE700BF53B94AB98B
:10B53000002908BF00281CBF4FF0FF314FF0FF303B
:10B5400000F072B9ADF1080C6DE904CE00F006F818
:10B55000DDF804E0DDE9022304B070472DE9F0478F
:10B56000089E04468846002B4BD18A42154667D96F
:10B57000B2FA82F24AB1C2F1200701FA02F320FACC
:10B5800007F7954047EA030894404FEA154E230C0D
:10B59000B8FBFEF71FFA85FC0EFB178843EA084349
:10B5A00007FB0CF1994209D9EB1807F1FF3080F045
:10B5B0001B81994240F21881023F2B445B1AA4B2CE
:10B5C000B3FBFEF00EFB103344EA034400FB0CFC1B
:10B5D000A44509D92C1900F1FF3380F00781A44557
:10B5E00040F2048102382C4440EA0740A4EB0C04EA
:10B5F00000271EB1D4400023C6E900433946BDE808
:10B60000F0878B4209D9002E00F0EB800027C6E9B5
:10B61000000138463946BDE8F087B3FA83F7002FBA
:10B6200047D18B4202D3824200F2FA80841A61EB46
:10B63000030301209846002EE0D0C6E90048DDE76C
:10B6400002B9FFDEB2FA82F2002A40F08F80491B75
:10B650004FEA154E1FFA85F80127B1FBFEFC230CBB
:10B660000EFB1C1143EA014308FB0CF1994207D978
:10B67000EB180CF1FF3002D2994200F2CD808446E3
:10B68000591AA3B2B1FBFEF00EFB101443EA0444B6
:10B6900008FB00F8A04507D92C1900F1FF3302D2AE
:10B6A000A04500F2B6801846A4EB080440EA0C401E
:10B6B0009FE7C7F1200CBB4022FA0CFE4EEA030EB6
:10B6C00001FA07F420FA0CF521FA0CF34FEA1E48B0
:10B6D0002543B3FBF8F92C0C08FB19331FFA8EFA3B
:10B6E00044EA034309FB0AF49C4202FA07F200FA17
:10B6F00007F10BD91EEB030309F1FF3080F08780BF
:10B700009C4240F28480A9F1020973441B1BADB234
:10B71000B3FBF8F008FB103345EA034400FB0AFAD8
:10B72000A24508D91EEB040400F1FF336BD2A245F9
:10B7300069D90238744440EA0940A0FB0289A4EBAD
:10B740000A044C45C2464B4654D351D0002E69D012
:10B75000B1EB0A0564EB030404FA0CFCFD40FC4069
:10B760004CEA0505C6E90054002747E7C2F120036B
:10B7700020FA03F7954001FA02F021FA03F34FEAA9
:10B78000154E3843010CB3FBFEF71FFA85F80EFB8C
:10B79000173341EA034107FB08F38B4204FA02F432
:10B7A00007D9691807F1FF3C2FD28B422DD9023FF0
:10B7B0002944CB1A81B2B3FBFEF00EFB103341EAF1
:10B7C000034100FB08F38B4207D9691800F1FF3CE5
:10B7D00017D28B4215D902382944C91A40EA0747C3
:10B7E0003BE73746304609E70746E7E61846FBE6FB
:10B7F0004145ABD2B8EB020A69EB0E0201381346A1
:10B80000A4E76046E9E7184695E76746D1E7814631
:10B810007CE702382C4447E7ACF1020C2B442FE7BD
:10B82000384608E73746E9E6704700BFF8B500BF7D
:10B83000F8BC08BC9E467047F8B500BFF8BC08BC11
:10B840009E467047FFFFFFFFFFFFFFFFFFFFFFFF69
:10B85000FFFFFFFF00000000000000000000D60115
:10B8600006010000D563020041640200D1630200BA
:10B87000756172745F6C6F675F6261636B656E6444
:10B8800000000000102000207F0000009020002019
:10B890004261636B656E647320666C757368656482
:10B8A000000000006170700000B9020030B90200B1
:10B8B000E0B8020038B9020040B9020048B90200FD
:10B8C00050B9020058B9020060B902002025303298
:10B8D00078000000202020007C000000256300008C
:10B8E0001B5B313B33316D0025734C6F67732064F4
:10B8F000726F70706564202825642925730D0A0015
:10B900001B5B306D00000000257300003C25733E7A
:10B910002025733A200000000D0A000000000000FE
:10B9200068B9020070B9020078B9020080B902005B
:10B930001B5B313B33306D001B5B313B33326D00A1
:10B940001B5B313B33336D001B5B313B33346D008C
:10B950001B5B313B33356D001B5B313B33366D0078
:10B960001B5B313B33376D006572726F72000000F4
:10B970007761726E696E6700696E666F0000000025
:10B980006465627567000000B02000204661746144
:10B990006C206572726F720053797374656D2072DA
:10B9A00065736574000000000000000000000000E6
:10B9B0000338FDD870470000303132333435363724
:10B9C000383941424344454644C5020044C502005B
:10B9D000040000007077725F6D676D7400000000F6
:10B9E000556E6B6E6F776E206572726F7220636F2B
:10B9F00064650000000000001CBB020001000000A4
:10BA000028BB02000200000048BB02000300000047
:10BA10006CBB02000400000080BB020005000000B7
:10BA200094BB020006000000A8BB02000700000053
:10BA3000C0BB020008000000D8BB020009000000E3
:10BA4000F0BB02000A0000000CBC02000B0000006A
:10BA500024BC02000C0000003CBC02000D000000F1
:10BA600050BC02000E00000064BC02000F00000089
:10BA700074BC02001000000088BC0200110000002D
:10BA8000A0BC020012000000B0BC020013000000C5
:10BA9000C8BC020080000000DCBC02008100000085
:10BAA00000BD0200820000001CBD020083000000F7
:10BAB00038BD02008400000058BD0200850000006F
:10BAC0007CBD020086000000A4BD020090000000C2
:10BAD000BCBD020091000000DCBD0200920000002D
